:020000040800F2
:10000000C8070020490200085102000853020008F6
:1000100055020008570200085902000800000000BD
:100020000000000000000000000000005B0200086B
:100030005D020008000000005F020008E9140008EB
:1000400063020008630200086302000863020008FC
:1000500063020008630200086302000863020008EC
:1000600063020008630200086302000863020008DC
:1000700063020008630200086302000863020008CC
:100080006302000863020008210600080000000067
:1000900000000000000000000000000063020008F3
:1000A000630200086302000863020008630200089C
:1000B000630200084D150008951600086302000849
:1000C000630200086302000863020008630200087C
:1000D00063020008311B00086302000800000000F2
:1000E00063020008630200086302000800000000C9
:1000F0000000000000000000000000006302000893
:1001000000000000630200086302000863020008A8
:1001100000000000000000000000000000000000DF
:10012000630200086302000863020008630200081B
:100130006302000800000000000000000000000052
:100140000000000000000000000000006302000842
:1001500063020008630200086302000863020008EB
:1001600063020008630200080000000000000000B5
:10017000000000000000000000000000000000007F
:100180000000000063020008000000000000000002
:10019000630200086302000800F002F800F044F86F
:1001A0000AA090E8000C82448344AAF10107DA45D2
:1001B00001D100F039F8AFF2090EBAE80F0013F0E0
:1001C000010F18BFFB1A43F001031847282700004E
:1001D00048270000103A24BF78C878C1FAD85207DF
:1001E00024BF30C830C144BF04680C6070470000B1
:1001F0000023002400250026103A28BF78C1FBD830
:10020000520728BF30C148BF0B607047642900F017
:100210007980632900F0BD81002070471FB502F08E
:1002200026FB1FBD10B510BD00F0BFF91146FFF74A
:10023000F5FF01F059FF00F0DDF903B4FFF7F2FF1D
:1002400003BC00F0E5F90000094880470948004771
:10025000FEE7FEE7FEE7FEE7FEE7FEE7FEE7FEE776
:10026000FEE7FEE704480549054A064B70470000D3
:100270003915000899010008C8010020C8070020AE
:10028000C8030020C80300200FB41CB5074B06AA02
:100290007B4469460090059800F059F900206946B2
:1002A00000F068F91CBC5DF814FB0000E1020000DE
:1002B00070B50C460546012A05D02878800600D581
:1002C000EA69002302E0012305E05B1C934202D2AD
:1002D000E05C0028F9D1A869E618C01AA861286A6C
:1002E000184428622846AFF3008004E0D5E90121D4
:1002F00014F8010B9047B442F8D32846AFF30080BE
:1003000070BD00002DE9F0410646002410687529F3
:10031000314616A510D0AFF30080002802DA404223
:1003200013A507E031688A0701D512A502E0490745
:1003300004D511A5012401E0AFF3008000210A22B9
:1003400006F1240709E0B0FBF2FCB0FBF2F302FB7C
:100350001C00303078541846491C0028F3D123463D
:100360002A463046BDE8F04100F092B80000000097
:100370002D0000002B000000200000002DE9F047B8
:100380004FF0000A89460446C0F820A02046E168E4
:100390008847002876D0252806D0D4E90121904747
:1003A000206A401C2062F1E7E1682046002588476A
:1003B000C4F81CA006460027C4F818A02A2E09D0AD
:1003C000304602F07DF838B304EB8708303EC8F8B9
:1003D000186019E059F8041B204604EB870291616C
:1003E000E1688847012F064618D1E069002820DA25
:1003F00025F020051DE0D8F8180000EB800006EB82
:1004000040003038C8F818002046E16888470646A2
:1004100002F056F80028EED1012F0AD02E2E08D176
:100420002046E16888477F1C0646022F45F02005DC
:10043000C4DBA069002803DA404245F00105A06151
:10044000E80701D025F01005B6B1A6F14100192842
:1004500002D8203645F400654A46314620462560DC
:100460004D46FFF7D3FE58B1012806D0ED1D25F00B
:10047000070000F1080989E704E005F1040985E7B0
:1004800030468AE7206ABDE8F087704770477047BA
:100490002DE9F0470D4699469246044600F124089E
:1004A0000168880604D5E06921F01001216000E0B0
:1004B0000120A84201DD471B00E00027A1697A194D
:1004C00002EB0900081AA0612078C00602D4204679
:1004D000AFF30080002608E0D4E901211AF80600F5
:1004E0009047206A401C761C20624E45F4DB207841
:1004F000C0060AD52046AFF3008006E0D4E901210A
:1005000030209047206A401C2062381EA7F1010766
:10051000F4DC07E0D4E9012118F805009047206ACF
:10052000401C2062281EA5F10105F3DC2046AFF334
:1005300000802078000602D50220BDE8F087012067
:10054000FBE7000001694A1C02610878704700B5AA
:100550008FB0CDE901310021059105497944CDE9FC
:10056000031011466846FFF709FF0FB000BD0000F9
:10057000E5FFFFFF0A6802F8010B0A60704710B53B
:10058000436913B1AFF3008001E0FFF791FE012052
:1005900010BD127800F124010A7000224A70012275
:1005A000EDE711684FF0FF32E9E7754600F02CF8EF
:1005B000AE4605006946534620F00700854618B050
:1005C00020B5FFF74FFEBDE820404FF000064FF08A
:1005D00000074FF000084FF0000BAC46ACE8C00934
:1005E000ACE8C009ACE8C009ACE8C00921F00701DB
:1005F0008D46704710B50446AFF300802046BDE835
:100600001040FFF71ABE000000487047E8000020C5
:1006100001491820ABBEFEE726000200704700002B
:10062000B0B501F043FD002818BF01F0E9FC01F06E
:1006300035FD002808BFB0BD40F26C14C2F20004C2
:10064000206830B101280BD140F2C415C2F2000578
:1006500003E040F2C015C2F2000500F0CDF82860BA
:100660002068B0FA80F040092060B0BDB0B584B019
:1006700042F2040503A902AA0446C4F2010501F0EE
:10068000E5FC01A9204600F069F8DDE9021003222B
:1006900000F0B2F9DDE90210002200F045FA43F65D
:1006A0004400C4F20200016841F480710160D5F891
:1006B000000320F44030C5F80003286820F04070A3
:1006C00028600198092800EB40010CDC0722EB6848
:1006D0008A4023EA0202EA600422EB6802FA01F18E
:1006E0001943E9600CE01E390722AB688A4023EA0F
:1006F0000202AA600422AB6802FA01F11943A96060
:10070000696800F01F0041F002016960A96A21F4E4
:100710007001A962296B21F01F012963296B08432D
:100720002863286820F480702860286820F0200062
:100730002860286840F02000286001F059FC01F092
:100740002FFC40F20040C4F200006421012200F0BE
:10075000F5F800F0E5F804B0B0BD000010B582B0C7
:100760000C4601A96A4601F071FC019840F60001AF
:10077000C4F20201884215D040F20041C4F20201E5
:10078000884219D00021C4F20201884232D1009877
:1007900007282FD8DFE800F004182E2E1A1C1E2080
:1007A000002022E00098052824D8DFE800F0031795
:1007B000191B1D210A2018E00098012802D0C8B991
:1007C000082012E0092010E001200EE004200CE0D7
:1007D00005200AE0062008E0072006E00B2004E0E0
:1007E0000C2002E00D2000E00E20206002B010BDC1
:1007F0000F20206002B010BD42F24C00C4F2010094
:10080000006870472DE9F04703AF82B042F22C0A2E
:10081000C4F2010A89465AF8241C21F001014AF861
:10082000241C072101EB890121F00701ADEB010830
:10083000C546B9F1020F05DB5AF8281C41F4807156
:100840004AF8281CB9F1010F0BDB441E45464E4601
:1008500014F9010F2946FFF781FF013E05F1040558
:10086000F6D1DAF80000B9F1010F20F47000CAF8EF
:10087000000040F20000CFF6F070DAF8001000EB54
:10088000095040EA0100CAF8000042DB00201F21A5
:10089000002213E0DAF8083001FA00F6B343CAF890
:1008A000083058F82230DAF8086083403343CAF839
:1008B00008300132914500F105002AD0052AE9D916
:1008C0000B2A13D8A0F11E03DAF8046001FA03F52D
:1008D000AE43CAF8046058F82260DAF8045006FA09
:1008E00003F32B43CAF80430E3E700BFA0F13C0355
:1008F000DAF8006001FA03F5AE43CAF8006058F870
:100900002260DAF8005006FA03F32B43CAF80030ED
:10091000CFE700F005F8A7F10C04A546BDE8F08785
:1009200042F20800C4F20100016841F001010160D7
:10093000016841F080410160704700002DE9F041FD
:10094000054642F2080740F20040C4F20107C4F233
:1009500000004FF00074854208BF4FF00064386813
:10096000B5F1804F20F002003860386808BF4FF0C2
:10097000C06440F480603860284690460E4600F01F
:1009800051FF2868314620F001002860284600F019
:10099000C7FF686820F070006860686840F0600019
:1009A0006860E86920F07000E861E86940F0600084
:1009B000E861286A40F480702862E86A4008E863C9
:1009C000286840F001002860386820F070603860C6
:1009D000386820433860386820F04051A8F10100A1
:1009E0000228396088BFBDE8F0813968013041EAEA
:1009F00000703860BDE8F081F0B581B00546A0F127
:100A00008040A0F5023707F500604FEAB020144699
:100A100007280E464DD8DFE800F004121D313F4C88
:100A20004C4A00F0B5FC07F580604FEAB02006287C
:100A30003FD8DFE800F0040F23313E3E3C0000F0D9
:100A4000B1FC4FEAB720052833D8DFE800F00317E0
:100A50002532323000F0B0FC41F60040C4F2020012
:100A6000854224D041F20000C4F20200854213D036
:100A700040F60040C4F2020085421AD100F0A6FC04
:100A800041F60040C4F20200854210D041F200005D
:100A9000C4F2020085420CD100F0A2FC41F60040F5
:100AA000C4F20200854208BF00F0A4FC01E000F09F
:100AB000A1FC28463146224600F002F801B0F0BD04
:100AC00080B549004FF0030CD0F800E00CFA01F3B8
:100AD0002EEA03030360036802FA01F1194301607F
:100AE00080BD000080B549004FF0030CD0F808E04D
:100AF0000CFA01F32EEA03038360836802FA01F122
:100B00001943816080BD000080B54FF0010CD0F822
:100B100004E00CFA01F32EEA03034360436802FA8F
:100B200001F11943416080BD80B549004FF0030CCD
:100B3000D0F80CE00CFA01F32EEA0303C360C3689B
:100B400002FA01F11943C16080BD000080B54FF089
:100B5000010CD0F814E00CFA01F32EEA0303436110
:100B6000436902FA01F11943416180BD022905D0B0
:100B7000012914BF403034300068704738300068B5
:100B800070470000B0B584B00C4603A902AA054620
:100B900001F05CFA01A96A46284600F0BDF854202D
:100BA00060430199013888624FF6FF70C86204B053
:100BB000B0BD000070B584B003A902AA044601F0DC
:100BC00045FA01A96A46204600F0A6F8DDE90210C0
:100BD000009D0222FFF710FFDDE902100322FFF75C
:100BE00081FF019C4FF6FF70C4F2000084420BDCD1
:100BF00040F2FF70C4F20000844213DCB4F1804F75
:100C00002ED040F2004015E044F2FF30C4F2010063
:100C1000844216DC0020C4F20100844220D044F259
:100C2000000016E040F60000C4F20000844205D047
:100C300040F60040C4F20000844220D10299022014
:100C400010E044F20040C4F20100844205D044F6B2
:100C50000000C4F20100844211D10299032001E096
:100C6000029901201C22039B6FF0030602EA810215
:100C700006EA510119440B6A904018430862204665
:100C80000121012600F072FD5320A0624FF6FF7093
:100C9000E06220680A2120F001002060A06920F0B5
:100CA0000300A061A06920F44070A061E06920F019
:100CB0000300E061E06920F44070E061A06940F069
:100CC0000100A061A06940F48070A061E06940F07B
:100CD0000100E061E06940F48070E0616FF00300C2
:100CE00000EB8500226A814022EA01012162216A2B
:100CF00006FA00F008432062E06806FA05F10843AE
:100D0000E060E06840F00100E060206840F0010031
:100D1000206004B070BD0000B0B582B014460D462E
:100D200001A96A4601F092F9019840F60001C4F267
:100D3000020188421AD040F20041C4F20201884206
:100D400021D00021C4F20201884241D100980F282D
:100D50003ED8DFE800F008333D3D3D08293D3F46E1
:100D60004D3D3D3D3D084FF080404EE00098063837
:100D700003282DD8DFE800F0181D022540F20040BE
:100D8000C4F200004FE000980338072820D8DFE8BD
:100D900000F0150B10363F04044840F20040C4F246
:100DA000000000F580603EE040F20040C4F2000028
:100DB0002BE040F20040C4F200002FE04FF08040F2
:100DC0002CE040F20040C4F20000286004202060C3
:100DD00002B0B0BD40F20040C4F2000000F57C401B
:100DE00013E040F20040C4F2000000F57C4015E042
:100DF00040F20040C4F2000000F57C4013E040F2F5
:100E00000040C4F2000000F58060286001200CE082
:100E100040F20040C4F2000000F58060286002202B
:100E200003E04FF0804028600320206002B0B0BD96
:100E300070B584B014460D4603A902AA064601F017
:100E400005F901A96A463046FFF766FF6FF0030017
:100E500000EB850301980122066A02FA03FC26EAE8
:100E60000C060662C668AA4026EA02016E1E032E20
:100E7000C1603BD8DFE806F0022D1120064656F887
:100E8000181F21F00301316000993568012914BF52
:100E900045F0020545F0010527E0064656F81C1FFF
:100EA00021F00301316000993568032914BF45F032
:100EB000020545F0010518E0064656F81C1F21F40E
:100EC000407131600099356804290CD145F4807572
:100ED0000BE0064656F8181F21F440713160009966
:100EE00035680229F2D045F4007535600A21056A9B
:100EF00001FA03F625EA0601022C016206D0012C54
:100F000008D06CB9016AF3430B4008E0016A41EA7A
:100F1000060304E00221066A994046EA01030362DF
:100F2000016A41EA0C010162C1681143C16004B069
:100F300070BD000010B52DED028B84B003A902AA8C
:100F4000B0EE408A044601F081F801A96A462046C5
:100F500000F048F90198C26A00990139032921D8A3
:100F6000013200EE102AB8EE400A20EE080AB7EE71
:100F7000001A30EE010ADFE801F002070C11BCEEA6
:100F8000C00A80ED0D0A0DE0BCEEC00A80ED0E0A2D
:100F900008E0BCEEC00A80ED0F0A03E0BCEEC00A18
:100FA00080ED100A04B0BDEC028B10BD10B584B00A
:100FB00003A902AA044601F049F801A96A4620469D
:100FC00000F010F9DDE902100222FFF715FDDDE95E
:100FD00002100022FFF798FDDDE902100122012432
:100FE000FFF7A2FDDDE902100222FFF77BFD029868
:100FF0001C2101EA8002DDF80CC06FF0030101EA58
:10100000500060440F23016A03FA02F29143016227
:1010100001984FF6FF71C4F2000188420BDC40F2E8
:10102000FF71C4F20001884213DCB0F1804F2BD075
:1010300040F2004115E044F2FF31C4F20101884260
:1010400015DC0021C4F2010188421DD044F20001E8
:1010500015E040F60001C4F20001884205D040F6D8
:101060000041C4F2000188421CD102240CE044F289
:101070000041C4F20101884205D044F60001C4F2E7
:10108000010188420ED1032402991C226FF0030350
:1010900002EA810203EA510161440B6A04FA02F296
:1010A0001A430A62012100F0BDFB0198016821F09A
:1010B00001010160016821F010010160C16A009A1C
:1010C000013A032A54D84908DFE802F0021426390D
:1010D000826900F1340322F07002826182696FF04C
:1010E000020442F060028261826942F00802826179
:1010F000012236E0826900F1380322F4E042826185
:1011000082696FF0200442F4C0428261826942F435
:1011100000628261102224E0C26900F1380322F0EB
:101120007002C261C2696FF4007442F06002C26171
:10113000C26942F00802C2614FF4807211E0C269D4
:1011400000F1380322F4E042C261C2696FF4005436
:1011500042F4C042C261C26942F40062C2614FF40B
:1011600080521960016A21400162016A11430162E3
:101170004421C4F20101A1F14402904203D10A6862
:1011800042F400420A60016841F00101016004B0CC
:1011900010BD0000B0B584B00C4603A902AA0546F4
:1011A00000F054FF01A96A46284600F01BF8019898
:1011B000214600F0B5FB04B0B0BD0000B0B584B06E
:1011C0000C4603A902AA054600F040FF01A96A46A1
:1011D000284600F007F80198214600F0F1FB04B022
:1011E000B0BD0000B0B582B014460D4601A96A46F4
:1011F00000F02CFF019840F60001C4F20201884281
:101200001AD040F20041C4F20201884221D00021EC
:10121000C4F2020188423AD100980F2837D8DFE89B
:1012200000F00822363636082536383F4636363640
:1012300036084FF0804047E000980638032826D84B
:10124000DFE800F01419021E40F20040C4F2000072
:1012500058E000980338072819D8DFE800F00407A1
:101260000C2F384148514FF0804036E040F20040AA
:10127000C4F2000028E040F20040C4F200002CE07C
:1012800040F20040C4F2000028600420206002B058
:10129000B0BD40F20040C4F2000000F57C4013E015
:1012A00040F20040C4F2000000F57C4015E040F23E
:1012B0000040C4F2000000F57C4023E040F2004012
:1012C000C4F2000000F58060286001201CE040F2BC
:1012D0000040C4F2000000F580602860022013E0A6
:1012E00040F20040C4F2000000F580600AE040F2E5
:1012F0000040C4F2000000F580602860042003E094
:101300004FF0804028600320206002B0B0BD000094
:1013100070B584B00C4643F6080603A902AA054638
:10132000C4F2020600F092FE01A96A462846FFF7C1
:1013300059FF0198816A326892075ABF32681023B8
:101340005423009A013A032A20D80131B3FBF1F16A
:1013500001EE104A00EE101AB8EE400AB8EE411A3B
:1013600021EE000ABFEE001A30EE010ABCEEC00A00
:1013700010EE101ADFE802F002040608343004E030
:10138000383002E03C3000E04030016004B070BD15
:1013900043F63000C4F20200016841F0010101602F
:1013A0007047000043F63000C4F20200016841F0CB
:1013B000020101607047000043F63000C4F20200F1
:1013C000016841F0040101607047000043F63000FD
:1013D000C4F20200016841F008010160704700009A
:1013E00043F63000C4F20200016841F010010160D0
:1013F0007047000043F63000C4F20200016841F07B
:10140000800101607047000043F60800C4F202004A
:10141000D0F8F81321F00701C0F8F813D0F8F8134A
:1014200041F00201C0F8F81350F8081C41F0010126
:1014300040F8081C50F8081C8907FBD550F8081C18
:10144000542221F0807140F8081C50F8041C21F44B
:10145000800140F8041C50F8041C40F8041C50F8AB
:10146000041C62F38E1140F8041C50F8041C08227E
:1014700062F3050140F8041C50F8041C21F44031CB
:1014800040F8041C50F8081C41F0807140F8081C1A
:1014900050F8081C8901FBD4016821F003010160A8
:1014A000016841F002010160016801F00C010829A6
:1014B000FAD1016821F0F0010160016821F4E051E6
:1014C0000160016841F480510160016821F46041CC
:1014D000016040F200004BF60051C2F20000C0F281
:1014E000015101607047000080B500F001F880BD37
:1014F00040F28410C2F200000168013101607047BF
:1015000080B54EF21000CEF20000002101600268AA
:1015100042F00402026044F61F02C0F2010242607F
:101520008160016841F002010160016841F0010140
:10153000016000F055FD80BD4EF68850CEF20000EF
:10154000016841F470010160704700002DE9F0432B
:1015500081B040F21045C4F200052868C0077CD075
:1015600040F25C14C2F20004206840F280160130A0
:101570002060C2F2000630784D2811D140F274107C
:10158000C2F2000090ED000A0020FFF7D3FC40F209
:101590007C10C2F2000090ED000A0120FFF7CAFCA7
:1015A000206849F690184CF6CD49C1F69918CCF64A
:1015B000CC4900FB098043F232374FEA3010C0F2C9
:1015C0003337B84207D840F25010C2F20000016829
:1015D00081F00101016030784E283AD140F250107C
:1015E000C2F2000002680020C4F202000521FFF7E9
:1015F000ADFA40F25410C2F20000006848BB206807
:1016000000FB09804FEA3010B84222D840F258104F
:10161000C2F2000040F28C140268C2F2000410A171
:101620002046FEF731FE20461E2100F0B9FB40F2B5
:10163000C010C2F20000026840F2C410C2F2000002
:10164000036810A12046FEF71FFE20461E2100F071
:10165000A7FB286820F00100286001B0BDE8F083F6
:101660000D0A4D4F443A4175746F204449523A4631
:101670005744205354523A252E32642056454C3A52
:10168000330D0A000D0A252E326420252E32640DFA
:101690000A000000B0B540F60004C4F20004204681
:1016A00000F012FD48B140F28810C2F2000001685B
:1016B00001310160204600F0B5FC2046012100F018
:1016C000FDFC78B1204601210125FFF74FFA00EE1D
:1016D000100A40F2B410B8EE400AC2F2000080EDE9
:1016E000000A37E02046022100F0E8FC002808BF8D
:1016F000B0BD204602210225FFF738FA00EE100A9D
:1017000040F2B810B8EE400AC2F2000080ED000AC4
:1017100040F28810C2F200000168E26A01325143CF
:1017200001EE101A40F2B411C2F2000191ED002A4C
:10173000B8EE411A30EE420A30EE010AB2EE041A57
:1017400040F2BC1120EE010AC2F2000181ED000A54
:10175000002101602046294600F05CFCB0BD00007D
:10176000C16841F00101C16070470000B0B5044696
:1017700000F058F82046FFF7F3FF4FF6FF70C4F271
:101780000000844210DC40F2FF70C4F2000084428A
:101790001FDCB4F1804F38D040F20040C4F20000AA
:1017A000844236D11D2535E044F2FF30C4F20100F9
:1017B00084424FF019051ADC0020C4F20100844273
:1017C00028D044F20000C4F20100844221D118253F
:1017D00020E040F60000C4F20000844217D040F63A
:1017E0000040C4F20000844213D1322512E044F2DA
:1017F0000040C4F2010084420CD044F60000C4F260
:101800000100844205D11A2504E01C2502E01E25B2
:1018100000E00025284600F0B3FB284600F0D8FB86
:10182000B0BD000010B5044640F6FF30C4F2000021
:10183000844219DD43F6FF70C4F2010084422BDCC0
:1018400040F60040C4F2000084423AD00020C4F2C6
:101850000100844258D143F64000C4F202004268BD
:1018600042F0010242604FE0B4F1804F32D040F2CA
:101870000040C4F2000084423ED040F60000C4F2B2
:101880000000844240D143F64000C4F202000268E6
:1018900042F00402026037E044F20000C4F20100AA
:1018A000844220D044F60000C4F2010084422BD1CF
:1018B00043F64000C4F20200426842F480224260D3
:1018C00022E043F64000C4F20200026842F008023F
:1018D000026019E043F64000C4F20200026842F0E0
:1018E0000102026010E043F64000C4F202004268C8
:1018F00042F48032426007E043F64000C4F2020046
:10190000026842F002020260204600F009F82068F6
:1019100020F010002060206840F00100206010BD21
:1019200010B543F60802C4F2020213689B0705D4FF
:1019300042F2004E1268C0F2F40E03E04BF6005E75
:10194000C0F2015E40F60043C4F20003984202D0A8
:10195000B0F1804F18D145F6C5234FEA5E1CC0F6A2
:101960007C23ACFB0334E309BEFBF3FC44F6D35306
:10197000C1F26203ACFB0332920951434FF0FF32D4
:1019800002EBD412826218E045F6C5234FEA5E12DC
:10199000C0F67C23A2FB0323DA09BEFBF2F244F675
:1019A000D354C1F26204A2FB0424A20951434FF0B4
:1019B000FF3202EBD31289B282620139C16210BDDB
:1019C00043F60802C4F2020213689B0705D41268AA
:1019D00042F20042C0F2F40203E04BF60052C0F2C1
:1019E000015240F60043C4F20003984202D0B0F125
:1019F000804F0DD1510945F6C522C0F67C22A1FBCE
:101A000002124FF0FF3101EBD2128262C1627047C5
:101A10004DF68363C4F21B33A2FB03239A0D51439B
:101A20000F2282624FF0FF3212FA81F1C1627047D9
:101A300080B5014641F20000C4F2010000F034F824
:101A400080BD000080B582B00021C4F202010A22EC
:101A5000A1F570404FF4165C009209220B46CDF8B8
:101A600004C000F0ADF902B080BD000080B50146B1
:101A700044F20040C4F2000000F016F880BD0000FF
:101A800080B582B00021C4F202010322A1F5DE304C
:101A90004FF4165C009202220B46CDF804C000F011
:101AA0008FF902B080BD0000B0B544F20042044698
:101AB0001DA0C4F20002944208BF043090ED000A59
:101AC000080101EE100AB8EE411A80EE010AE06842
:101AD00020F40050E0600020A060BCEEC01AB8EE18
:101AE000412A30EE420A11EE105A00F09CFC10EE32
:101AF000100A00F04BFE9FED0A0B53EC102B00F088
:101B000047FD00F017FDA16840EA05100843A060FA
:101B1000E06840F40050E060B0BD00BF00BF00BF0F
:101B20000000000000003040A037A04CA037204C3F
:101B300010B500F0CDFA002875D000F029F940F278
:101B40004814C2F2000420702046012100F028F958
:101B500020786D2802D020784D280DD10020C4F2C5
:101B6000020005210122FEF7F1FF40F28010C2F2CF
:101B700000004D21017010BD2078462802D0207849
:101B8000662815D140F26010C2F200000021016009
:101B900040F27010C2F20000016040F27810C2F210
:101BA0000000016040F26410C2F2000046221BE017
:101BB0002078422802D02078622827D140F2601095
:101BC000C2F200000121016040F27010C2F2000078
:101BD0000021016040F27810C2F20000016040F282
:101BE0006410C2F200004222027040F2B010C2F251
:101BF00000000C22026040F25810C2F200000160A6
:101C000040F2AC10C2F20000016010BD20785728ED
:101C100002D02078772811D140F2AC10C2F2000037
:101C20000168032900D110BD40F2B011C2F20001D9
:101C30000A6801320A600268013215E020785328F0
:101C400002D02078732826D140F2AC10C2F20000F6
:101C500001680029E7D040F2B011C2F200010A6821
:101C6000013A0A600268013A0260086840F2040220
:101C7000C2F2000252F8300040F27813C2F20003C0
:101C80001860086802EBC000406840F27011C2F2B0
:101C90000001086010BD2078412802D0207861281A
:101CA00014D140F25810C2F2000001680331BAD0DA
:101CB00001680139016040F26010C2F20000016861
:101CC00029B3006801282BD1042022E02078442881
:101CD00002D02078642835D140F25810C2F20000BA
:101CE000016803299FD001680131016040F2601151
:101CF000C2F200010868002840F2B010C2F20000F1
:101D000032D0096801290FD16FF003012DE06FF087
:101D1000030040F2B011C2F200010A6810440860EA
:101D200040F2B010C2F20000016840F20402C2F2B8
:101D3000000252F8311040F27813C2F20003196029
:101D400000689FE72078502802D02078702810D1B2
:101D500040F27010C2F200000021016040F27810E1
:101D6000C2F20000016010BD04210268114401604C
:101D7000DAE720784E2803D020786E2818BF10BDEF
:101D800040F28010C2F200004E21017010BD000030
:101D900080B541F20000C4F2010000F00BF880BDF4
:101DA00080B50A46014641F20000C4F2010000F08D
:101DB000B5F880BD01688906FCD54068C0B270479F
:101DC0002DE9F04717460E460446DDF8208044F220
:101DD00000490846114602229A46C4F20009FEF75D
:101DE0000BFE304639460022FEF78EFE304639465D
:101DF0000022FEF799FE304639460322FEF772FEB6
:101E0000504641460222FEF7F7FD50464146002269
:101E1000FEF77AFE504641460022FEF785FE504608
:101E200041460322FEF75EFE6FF01F0000EB8703C2
:101E300006F12400024609F5504506F12001082F5D
:101E4000BCBF0A46BB00AC420CBF0826072612687E
:101E500006FA03F3082FB8BF084642EA03010160FF
:101E6000B8F1070F4FEA880004DC06FA00F00AF127
:101E7000200204E0203806FA00F00AF12402136878
:101E80000999184309F54C46106043F64400B442E2
:101E9000C4F2020006D04C4509D0026842F020028C
:101EA00002600AE0026842F01002026005E050F8A9
:101EB000042C42F4003240F8042CE06820F4005076
:101EC000E060E068E060E068E060E06820F4004026
:101ED000E060206920612046FFF7E6FDE0684725C5
:101EE00040F00C00E060E0684C4540F40050E060D9
:101EF000E06840F02000E06008BF2625B44208BF3B
:101F00002525284600F05CF8284600F029F8E0680E
:101F100040F40050E060BDE8F087000062B14FF08F
:101F2000000C00BF03681B06FCD511F80C300CF147
:101F3000010C94454360F5D101684906FCD5016860
:101F400021F040010160704700F01F00012101FAFB
:101F500000F04EF20011CEF2000108607047000060
:101F6000C1B200F01F00012202FA00F04EF200128E
:101F7000CEF2000242EAD10121F00301086070476D
:101F8000C1B200F01F00012202FA00F04EF200126E
:101F9000CEF2000242EAD10121F00301086070474D
:101FA0004EF20010CEF200004FF480210160704725
:101FB000E422C0F2E002090162F31F2001707047C1
:101FC000E421C0F2E00161F31F201021017070478D
:101FD000E421C0F2E00161F31F202021017070476D
:101FE0004EF62350CEF20000002101707047000031
:101FF0004EF21240CEF20000102101707047000036
:1020000042F20000C4F20100016821F020010160E9
:10201000704700000122036902FA01F123EA01017D
:1020200001617047016921F0010101617047000001
:1020300040F28411C2F200010A6800BF0B689B1ACB
:102040008342FBD300200860704700004FF0FF334D
:1020500040F2000C03EB2013C4F2020C00F00F005E
:10206000062B106016D8DFE803F004090E151515CD
:1020700013000CF5806CC1F800C070470CF5006CC3
:10208000C1F800C070470CF5406CC1F800C0704743
:102090000CF5E05CC1F800C07047000042F200009F
:1020A000C4F201000068C0F34000704742F2000033
:1020B000C4F201000068C0F3401070470069C840D6
:1020C00000F0010070470000006900F00100704757
:1020D00080B541F20000C4F2010000F001F880BDBB
:1020E000006800F02000704782B040F60009C4F29A
:1020F000020900F0FDF840F2801740F2601640F24D
:10210000581B40F28C159FED708A9FED6BBB9FEDC5
:102110006CCB40F2541AC2F20007C2F20006C2F2BF
:10212000000BC2F200050FF2A418B7EE00AAB2EE3F
:102130000EDAC2F2000A4CE040F2701096ED000A8E
:10214000C2F2000090ED001AB8EEC00A30EE410A6B
:1021500040F27410B0EEC00AC2F2000080ED000A36
:1021600040F2781096ED000AC2F2000090ED001ADD
:10217000B8EEC00A30EE410A40F27C10B0EEC00A60
:10218000C2F2000080ED000A326848460221FEF7E4
:10219000DDFC326848460321FEF7D8FC40F26410AB
:1021A000C2F2000040F2AC113A780378DBF800008C
:1021B000C2F200010C680090284641460194FEF7E7
:1021C00063F828461E21FFF7EBFD4FF47A70FFF706
:1021D0002FFF38784D28AFD038784E28F9D100201D
:1021E000306040F2C01040F2C411C2F20000C2F2EE
:1021F000000100680968DAF80020401A40F24C112A
:10220000C2F2000108600ABB10F5C87F4FF0000160
:10221000B0EE4A9AB8BF4FF0FF31B8BFB0EE489A5F
:10222000B0F5C87FB0EE4A0A4FF00000C8BF0121E8
:10223000C4BFB0EE480AB0EE4A9ACBF80010FEF7E1
:1022400079FE0120B0EE490AFEF774FE40F2BC10A0
:10225000C2F20000006800F099FA53EC1B2B00F06A
:1022600097F953EC1C2B00F093F900F031F900EED4
:10227000100AB4EE4D0A40F26811F1EE10FAC2F203
:102280000001086012DAB5EE400AF1EE10FA0DDD39
:102290000120CAF800000020B0EE480AFEF74AFE0E
:1022A0000120B0EE480AFEF745FE92E70020CAF88A
:1022B00000008EE700BF00BF9CC420B07268A13F41
:1022C000000000000000E03F000000000D0A4D4F3C
:1022D000443A2563204449523A2563205354523AE4
:1022E000252E32642056454C3A252E32640D0A00C4
:1022F00070B582B0FFF788F8FFF702F9FFF7A2FB8D
:102300004FF416504FF41656FFF792FBFFF7B8FB49
:102310004FF41650FFF7AAFB40F60004C4F2020483
:10232000A4F500650A21A4F5784000912946092208
:102330002B460196FFF744FDFFF7E2F81020FEF769
:1023400095F91120FEF792F940F2E400C2F2000084
:102350000221FEF757FA284605210122FEF74CFB21
:10236000204602210122FEF747FB204603210122DD
:10237000FEF742FB204602210022FEF7E7FB204643
:1023800003210022FEF7E2FB0020FEF70FFE0020F3
:102390000121FEF7FFFE0120FEF708FE01200121CA
:1023A000FEF7F8FEA4F5013528464FF4FA71FFF761
:1023B000DDF92846FFF7D4F91D20FFF7C5FD1D20E4
:1023C0000321FFF7F5FDA4F5003420464FF4FA7120
:1023D000FFF7CCF92046FFF7C3F91E20FFF7B4FD45
:1023E0001E200421FFF7E4FD0620FEF7DFFD062096
:1023F0004CF25031FEF7E2FE06200A21FEF788FF7C
:102400001620FEF7D7FB16200A21FEF7BBFB16208D
:1024100001210022FEF70CFD162002210122FEF709
:1024200007FD02B070BD10B52DED028BB0EE408AF5
:1024300018EE100A00F02EFA01EE100A18EE100A3B
:10244000B7EE000A78EE410A10F0004F4FF07F40DF
:1024500010EE901A12D0B1F13F4F24BF10EE901A37
:10246000B0EB410F12D210EE901AB1F17C5F1CDD7F
:1024700010EE901AB0EB410F17D314E0B1F13F4FBB
:1024800007D910EE901AB0EB410F02D331EE401A8B
:102490000BE010EE901AB1F17C5F06DB10EE901AA3
:1024A000B0EB410F01D331EE001A18EE100ABDEC6B
:1024B000028B11EE101A61F31E0000EE100A10BD1F
:1024C00030380A2801D201207047002070470000F0
:1024D00021F0004201F00043A2F16052B2F5801FEA
:1024E00028BFD2F17F6C0BD95FEA001C43EAC2021D
:1024F00042EB507018BF704728BF20F001007047B2
:10250000B2F5801FBCBF184670474FEA410C1CF55E
:10251000001F02D2084600F0B7B970B500F0E2F82B
:1025200000000089FFF7F6BF4FF00040A0F58000E3
:10253000704700004FEA1153A3F58063D3F11E03E7
:10254000A8BFD3F1200C08DB4FF0004242EAC122C1
:1025500052EA505232FA03F0704709420BD4102B62
:10256000C4BF0020704703F5787CBCF1FF3F05D065
:102570004FF0FF3070474FF00000704770B500F02B
:10258000B1F800BF4992248000207047F0E70000B6
:1025900070B5DFF848C11CEA111E1EBF1CEA1315F6
:1025A0009EEA0C0F95EA0C0F00F06F8081EA03049D
:1025B0004EEAD47EAE4421EA4C1123EA4C1341F496
:1025C000801143F48013AEF17F7EA1FB024CA0FB8F
:1025D0000365361955EB0C05A1FB034C4CF10003C8
:1025E000A0FB021C16EB0C06654153F100030942E7
:1025F00018BF46F0010613F4007F0BD14FEA0331F8
:102600004FEA053041EA155140EA165034036FF0A5
:1026100003020AE04FEAC3214FEAC52041EA5551BF
:1026200040EA5650F4026FF0020202EB2E4201EB38
:10263000025585EACE710AD05FEA440C18BF24F037
:10264000004450F1000041F1000120EAD47040F252
:10265000FE7C624500D270BDA84214BF4FF080449A
:102660004FF04044002E08BF0024BEF1806FA8BF89
:10267000A1F1C041BDE8704080F2828001F1C0410B
:1026800001F000414FF0000070470CEA13159EEA7C
:102690000C0F18BF95EA0C0F06D081EA030E4FF01D
:1026A00000000EF0004170BD00F01CF88900013EF2
:1026B00000F007B800F009B84FEA430C5FEA5C5C31
:1026C00008D081EA030100F05BB84FEA410C5FEAF1
:1026D0005C5CF6D102494FF0000070470000FF0734
:1026E0000000F87F0EF1020E2EF0030E5EF8046B70
:1026F000364205D4012A43EB030515F5001F12D815
:10270000012841EB010C1CF5001F0CD80ED14FEA3B
:10271000D17C0CEB4C0C0CF1020C15F5001F08BF22
:102720004CEBD37C04E04FF0080C01E04FEAD37C83
:102730000CEB4C0526FA05F606F00706B6F1040C7C
:1027400006D20EEB860CBDE870404CF0010C6047E1
:10275000DFE80CF0090B02024FF00041A1F5002167
:102760004FF0000070BD19461046012851EB0104DE
:1027700018BFD4F5001484BF002001F0004170BDE3
:102780000808A0F500114FEA3101704743004FEAF5
:10279000D30C4FEA3C0C43401FBF40070CF1605183
:1027A00013F0FE4F70471CF0006F03D10CF0004196
:1027B000002070470CF0004343EA507040EACC0020
:1027C00010B500F00EF800BF000000924FEA0001C3
:1027D000FFF7D6BF4FF00041A1F500214FF00000F8
:1027E00070470EF1020E2EF0030E5EF8044B2442E9
:1027F00004D44FEA4102B2F17F4F11D84FEA4003AF
:10280000B3F17F4F0CD80ED14FEAD07C0CEB4C0CBF
:102810000CF1020CB2F17F4F08BF4CEBD17C04E00D
:102820004FF0080C01E04FEAD17C0CEB4C0324FA8A
:1028300003F404F00704B4F1040C06D20EEB840C8C
:10284000BDE810404CF0010C6047DFE80CF00708D1
:1028500002024FF00040A0F5800010BD0846420083
:1028600018BFD2F1807288BF00F0004010BDF1EEB9
:10287000100A4FF6FF71C0F2C03120EA010040F0AB
:102880004070E1EE100A7047FF2141EAD050C005C8
:10289000704700005FEA400C5FEA1C6CBCF17F03EC
:1028A00014D4D3F1170240F31C804FF0010C0CFA42
:1028B00002FCACF10103034020EA0300B3EB5C022D
:1028C00008BF10EA0C0F88BF60447047B3F1FF3FA8
:1028D00028BF5FEA002C00F0004088BF40F07E5027
:1028E0007047BCF1FF0FB8BF704710B5FFF779FF15
:1028F00040DBB6BE1829000800000020E8000000F8
:10290000D4010008002A0008E8000020E0060000CA
:10291000F0010008000000000024F40000000000A6
:1029200000000000CDCC4C3E0000003F9A99993E3B
:102930003333333FCDCCCC3E6666663F00000000AB
:10294000000000009A99993E0000003FCDCCCC3E9B
:102950003333333F0000003F6666663F00000000EF
:1029600000000000CDCCCC3E0000003F0000003F46
:102970003333333F9A99193F6666663F0000000083
:10298000000000000000003F0000003F3333333FF1
:102990003333333F6666663F6666663F000000007D
:1029A000000000000000003FCDCCCC3E3333333F6D
:1029B0000000003F6666663F9A99193F00000000DC
:1029C000000000000000003F9A99993E3333333FE6
:1029D000CDCCCC3E6666663F0000003F00000000A4
:1029E000000000000000003FCDCC4C3E3333333FAD
:1029F0009A99993E6666663FCDCCCC3E1011000098
:040000050800019955
:00000001FF
