:020000040800F2
:100000009806002039020008410200084302000857
:1000100045020008470200084902000800000000ED
:100020000000000000000000000000004B0200087B
:100030004D020008000000004F020008C50600083D
:10004000530200085302000853020008530200083C
:10005000530200085302000853020008530200082C
:10006000530200085302000853020008530200081C
:10007000530200085302000853020008530200080C
:100080005302000853020008530200080000000059
:100090000000000000000000000000005302000803
:1000A00053020008530200085302000853020008DC
:1000B00053020008530200085302000853020008CC
:1000C00053020008530200085302000853020008BC
:1000D0005302000853020008530200080000000009
:1000E000F502000853020008530200080000000057
:1000F00000000000000000000000000053020008A3
:1001000000000000530200085302000853020008D8
:1001100000000000000000000000000000000000DF
:10012000530200085302000853020008530200085B
:100130005302000800000000000000000000000062
:100140000000000000000000000000005302000852
:10015000530200085302000853020008530200082B
:1001600053020008530200080000000000000000D5
:10017000000000000000000000000000000000007F
:100180000000000053020008000000000000000012
:10019000530200085302000800F002F800F03CF897
:1001A0000AA090E8000C82448344AAF10107DA45D2
:1001B00001D100F031F8AFF2090EBAE80F0013F0E8
:1001C000010F18BFFB1A43F001031847E4070000B2
:1001D00004080000103A24BF78C878C1FAD8520742
:1001E00024BF30C830C144BF04680C6070470000B1
:1001F0000023002400250026103A28BF78C1FBD830
:10020000520728BF30C148BF0B6070471FB500F0D0
:1002100082FB1FBD10B510BD00F031F81146FFF78D
:10022000F5FF00F0D7FA00F04FF803B4FFF7F2FF44
:1002300003BC00F057F80000094880470948004710
:10024000FEE7FEE7FEE7FEE7FEE7FEE7FEE7FEE786
:10025000FEE7FEE704480549054A064B70470000E3
:100260002507000899010008980000209806002042
:10027000980200209802002070477047704775462A
:1002800000F02CF8AE4605006946534620F0070002
:10029000854618B020B5FFF7DDFFBDE820404FF0E0
:1002A00000064FF000074FF000084FF0000BAC467F
:1002B000ACE8C009ACE8C009ACE8C009ACE8C009CA
:1002C00021F007018D46704710B50446AFF300805A
:1002D0002046BDE81040FFF7A8BF00000048704767
:1002E0003000002001491820ABBEFEE726000200C6
:1002F0007047000080B50D2000F062FA002808BFAA
:1003000080BD40F29000C2F2000000210160002098
:1003100000F0A0FA0D2000F039FA80BDF0B581B0F0
:100320009C4643F64403C4F202031C6800F13E40BD
:1003300044F4804400F1FF701C604FEAB0230424B1
:10034000042B38BF4FEAB024C81743F6084E01EB20
:100350009070C4F2010E20F003004FF600460B1A15
:100360007044CFF6FF769B000F2587599D4027EA02
:1003700005058551855904FA03F32B43022A83515D
:100380000CD0012A19D0FAB943F60C42C4F201028A
:100390000120136888401843106015E00120DEF842
:1003A000002088400243CEF8002043F60C42C4F2FD
:1003B000010213681843106006E00120DEF80020F7
:1003C00088401043CEF8000001205EF8082C8840D9
:1003D00010434EF8080C28200A29B8BF1720052919
:1003E000B8BF881D44B22046614600F0B5F92046EA
:1003F00000F0A2F901B0F0BDF0B581B00546A0F162
:100400008040A0F5023707F500604FEAB02014469F
:1004100007280E464DD8DFE800F004121D313F4C8E
:100420004C4A00F0A3F807F580604FEAB020062898
:100430003FD8DFE800F0040F23313E3E3C0000F0DF
:100440009FF84FEAB720052833D8DFE800F00317FC
:100450002532323000F09EF841F60040C4F202002E
:10046000854224D041F20000C4F20200854213D03C
:1004700040F60040C4F2020085421AD100F094F820
:1004800041F60040C4F20200854210D041F2000063
:10049000C4F2020085420CD100F090F841F6004011
:1004A000C4F20200854208BF00F092F801E000F0BB
:1004B0008FF828463146224600F002F801B0F0BD20
:1004C00080B549004FF0030CD0F800E00CFA01F3BE
:1004D0002EEA03030360036802FA01F11943016085
:1004E00080BD000080B549004FF0030CD0F808E053
:1004F0000CFA01F32EEA03038360836802FA01F128
:100500001943816080BD000080B54FF0010CD0F828
:1005100004E00CFA01F32EEA03034360436802FA95
:1005200001F11943416080BD80B549004FF0030CD3
:10053000D0F80CE00CFA01F32EEA0303C360C368A1
:1005400002FA01F11943C16080BD000080B54FF08F
:10055000010CD0F814E00CFA01F32EEA0303436116
:10056000436902FA01F11943416180BD43F630004D
:10057000C4F20200016841F001010160704700000F
:1005800043F63000C4F20200016841F0020101604C
:100590007047000043F63000C4F20200016841F0E9
:1005A000040101607047000043F63000C4F202000D
:1005B000016841F0080101607047000043F6300017
:1005C000C4F20200016841F01001016070470000B0
:1005D00043F63000C4F20200016841F0800101607E
:1005E0007047000043F60800C4F20200D0F8F81388
:1005F00021F00701C0F8F813D0F8F81341F0020118
:10060000C0F8F81350F8081C41F0010140F8081C2C
:1006100050F8081C8907FBD550F8081C542221F01B
:10062000807140F8081C50F8041C21F4800140F847
:10063000041C50F8041C40F8041C50F8041C62F31D
:100640008E1140F8041C50F8041C082262F30501C6
:1006500040F8041C50F8041C21F4403140F8041CFC
:1006600050F8081C41F0807140F8081C50F8081C34
:100670008901FBD4016821F003010160016841F0A8
:1006800002010160016801F00C010829FAD101683A
:1006900021F0F0010160016821F4E051016001687E
:1006A00041F480510160016821F46041016040F231
:1006B00000004BF60051C2F20000C0F2015101608F
:1006C0007047000080B500F001F880BD40F2940052
:1006D000C2F20000016801310160704780B54EF23E
:1006E0001000CEF2000000210160026842F0040216
:1006F000026044F61F02C0F201024260816001689C
:1007000041F002010160016841F00101016000F067
:1007100035F880BD4EF21800CEF2000000210160D5
:10072000704700004EF68850CEF20000016841F498
:100730007001016070470000002848BF704700F05A
:100740001F01012202FA01F14EF200124009CEF21D
:10075000000242F8201070474EF6145300F00F02CA
:10076000CEF2000309011A4400F16043B0F1FF3FEB
:10077000C8BF03F564421170704700004EF6235065
:10078000CEF20000002101707047000043F61442D1
:10079000C4F201020121136801FA00F0184310604D
:1007A0007047000040F29401C2F200010A6800BFE5
:1007B0000B689B1A8342FBD300200860704700003F
:1007C00043F61441C4F20101096821FA00F000F077
:1007D0000100704700F022F840F2900446F267658D
:1007E000C2F20004C6F26665206850FB05F18A0873
:1007F00002EBD17101EB8101A0EB4100C0B200F02E
:1008000029F84FF47A70FFF7CDFF2068411C0828C3
:10081000C8BF00212160FFF77DFFE5E710B5FFF7B6
:10082000E1FEFFF75BFF00F033F840F60004C4F28E
:10083000020420460D2100220023FFF76FFD204611
:100840000D210022FFF7D8FD20460D210122FFF7E0
:100850006BFE10BDF0B581B040F6901640F2040773
:1008600004460025C0F60006C2F2000757F824200F
:1008700006EBC50156F835008988EA4002F001020E
:10088000FFF764FE0135042DF0D101B0F0BD00008A
:10089000F0B581B040F630160027C0F6000600BF64
:1008A00006EBC70056F837408588204629460122C6
:1008B000FFF7A2FD204629460022FFF735FE20461D
:1008C00029460022FFF720FE204629460122FFF795
:1008D00009FE204629460122FFF738FE0137082F7E
:1008E000DED140F600040025C4F202040BE000BF94
:1008F00006EBC50156F8350089880022FFF726FE71
:100900000135082D05D0042DF2D120460721012202
:10091000F4E701B0F0BDF1EE100A4FF6FF71C0F23E
:10092000C03120EA010040F04070E1EE100A70474B
:100930000000024005000000000002400600000028
:100940000000024007000000000402400600000012
:1009500000080240070000000000024009000000FB
:100960000000024008000000000402400A000000ED
:1009700000000240070000000004024006000000E2
:1009800000080240070000000000024009000000CB
:1009900000000240070000000004024006000000C2
:1009A00000080240070000000000024009000000AB
:1009B000D00900080000002030000000D401000829
:1009C000000A00083000002068060000F00100085E
:1009D0000024F400000000000100000002000000FC
:1009E00003000000040000000500000006000000F5
:1009F00007000000080000000900000000000000DF
:040000050800019955
:00000001FF
