:020000040800F2
:10000000700600203902000841020008430200087F
:1000100045020008470200084902000800000000ED
:100020000000000000000000000000004B0200087B
:100030004D020008000000004F02000839050008CA
:10004000530200085302000853020008530200083C
:10005000530200085302000853020008530200082C
:10006000530200085302000853020008530200081C
:10007000530200085302000853020008530200080C
:100080005302000853020008530200080000000059
:100090000000000000000000000000005302000803
:1000A00053020008530200085302000853020008DC
:1000B00065050008530200085302000853020008B7
:1000C00053020008530200085302000853020008BC
:1000D0005302000853020008530200080000000009
:1000E00053020008530200085302000800000000F9
:1000F00000000000000000000000000053020008A3
:1001000000000000530200085302000853020008D8
:1001100000000000000000000000000000000000DF
:10012000530200085302000853020008530200085B
:100130005302000800000000000000000000000062
:100140000000000000000000000000005302000852
:10015000530200085302000853020008530200082B
:1001600053020008530200080000000000000000D5
:10017000000000000000000000000000000000007F
:100180000000000053020008000000000000000012
:10019000530200085302000800F002F800F03CF897
:1001A0000AA090E8000C82448344AAF10107DA45D2
:1001B00001D100F031F8AFF2090EBAE80F0013F0E8
:1001C000010F18BFFB1A43F0010318479C040000FD
:1001D000BC040000103A24BF78C878C1FAD852078E
:1001E00024BF30C830C144BF04680C6070470000B1
:1001F0000023002400250026103A28BF78C1FBD830
:10020000520728BF30C148BF0B6070471FB500F0D0
:100210001EFA1FBD10B510BD00F031F81146FFF7F2
:10022000F5FF00F0E7F900F04FF803B4FFF7F2FF35
:1002300003BC00F057F80000094880470948004710
:10024000FEE7FEE7FEE7FEE7FEE7FEE7FEE7FEE786
:10025000FEE7FEE704480549054A064B70470000E3
:100260005105000899010008700000207006002068
:10027000700200207002002070477047704775467A
:1002800000F02CF8AE4605006946534620F0070002
:10029000854618B020B5FFF7DDFFBDE820404FF0E0
:1002A00000064FF000074FF000084FF0000BAC467F
:1002B000ACE8C009ACE8C009ACE8C009ACE8C009CA
:1002C00021F007018D46704710B50446AFF300805A
:1002D0002046BDE81040FFF7A8BF00000048704767
:1002E0000800002001491820ABBEFEE726000200EE
:1002F00070470000F0B581B00546A0F18040A0F540
:10030000023707F500604FEAB020144607280E4672
:100310004DD8DFE800F004121D313F4C4C4A00F08C
:100320005FF807F580604FEAB02006283FD8DFE885
:1003300000F0040F23313E3E3C0000F05BF84FEA32
:10034000B720052833D8DFE800F003172532323014
:1003500000F05AF841F60040C4F20200854224D071
:1003600041F20000C4F20200854213D040F6004082
:10037000C4F2020085421AD100F050F841F6004064
:10038000C4F20200854210D041F20000C4F2020023
:1003900085420CD100F04CF841F60040C4F2020056
:1003A000854208BF00F04EF801E000F04BF8284607
:1003B0003146224600F002F801B0F0BD80B5490098
:1003C0004FF0030CD0F800E00CFA01F32EEA03031F
:1003D0000360036802FA01F11943016080BD000067
:1003E00043F63000C4F20200016841F001010160EF
:1003F0007047000043F63000C4F20200016841F08B
:10040000020101607047000043F63000C4F20200B0
:10041000016841F0040101607047000043F63000BC
:10042000C4F20200016841F0080101607047000059
:1004300043F63000C4F20200016841F0100101608F
:100440007047000043F63000C4F20200016841F03A
:10045000800101607047000043F60800C4F202000A
:10046000D0F8F81321F00701C0F8F813D0F8F8130A
:1004700041F00201C0F8F81350F8081C41F00101E6
:1004800040F8081C50F8081C8907FBD550F8081CD8
:10049000542221F0807140F8081C50F8041C21F40B
:1004A000800140F8041C50F8041C40F8041C50F86B
:1004B000041C62F38E1140F8041C50F8041C08223E
:1004C00062F3050140F8041C50F8041C21F440318B
:1004D00040F8041C50F8081C41F0807140F8081CDA
:1004E00050F8081C8901FBD4016821F00301016068
:1004F000016841F002010160016801F00C01082966
:10050000FAD1016821F0F0010160016821F4E051A5
:100510000160016841F480510160016821F460418B
:10052000016040F200004BF60051C2F20000C0F240
:10053000015101607047000080B500F001F880BDF6
:1005400040F26C00C2F200000168013101607047A6
:100550004EF68850CEF20000016841F4700101604F
:1005600070470000B0B51024C4F200042068C00732
:1005700008BFB0BD40F26805C2F20005286801302E
:10058000B0F5FA7F286007D90020C4F202000521E7
:1005900000F018F800202860206820F0010020609A
:1005A000B0BD00004EF20010CEF200004FF08051BE
:1005B000016070474EF21C40CEF200002021017015
:1005C0007047000081B00122436902FA01F15940ED
:1005D00041610020009000994AF22010C0F207000B
:1005E000814205DA00990131009100998142F9DBDD
:1005F00001B0704700F020F843F64000C4F202005A
:10060000016841F0010101600C20C4F2000040F2D9
:100610004731C16163210162016841F0010101605C
:100620004FF08040016841F001010160FFF7C2FF17
:10063000FFF7B8FFFEE7000080B5FFF70DFF0020D1
:10064000C4F2020005210122FFF754FE80BDF1EE45
:10065000100A4FF6FF71C0F2C03120EA010040F0ED
:100660004070E1EE100A7047880600080000002084
:1006700008000000D40100089006000808000020CF
:1006800068060000F00100080024F40000000000EB
:040000050800019955
:00000001FF
