:020000040800F2
:10000000700600203902000841020008430200087F
:1000100045020008470200084902000800000000ED
:100020000000000000000000000000004B0200087B
:100030004D020008000000004F020008690A000895
:10004000530200085302000853020008530200083C
:10005000530200085302000853020008530200082C
:10006000530200085302000853020008530200081C
:10007000530200085302000853020008530200080C
:100080005302000853020008530200080000000059
:100090000000000000000000000000005302000803
:1000A00053020008530200085302000853020008DC
:1000B00053020008990A000853020008530200087E
:1000C00053020008530200085302000853020008BC
:1000D0005302000853020008530200080000000009
:1000E000F502000853020008530200080000000057
:1000F00000000000000000000000000053020008A3
:1001000000000000530200085302000853020008D8
:1001100000000000000000000000000000000000DF
:10012000530200085302000853020008530200085B
:100130005302000800000000000000000000000062
:100140000000000000000000000000005302000852
:10015000530200085302000853020008530200082B
:1001600053020008530200080000000000000000D5
:10017000000000000000000000000000000000007F
:100180000000000053020008000000000000000012
:10019000530200085302000800F002F800F03CF897
:1001A0000AA090E8000C82448344AAF10107DA45D2
:1001B00001D100F031F8AFF2090EBAE80F0013F0E8
:1001C000010F18BFFB1A43F001031847CC150000BC
:1001D000EC150000103A24BF78C878C1FAD852074D
:1001E00024BF30C830C144BF04680C6070470000B1
:1001F0000023002400250026103A28BF78C1FBD830
:10020000520728BF30C148BF0B6070471FB501F0CF
:10021000B1FA1FBD10B510BD00F031F81146FFF75F
:10022000F5FF00F039FE00F04FF803B4FFF7F2FFDE
:1002300003BC00F057F80000094880470948004710
:10024000FEE7FEE7FEE7FEE7FEE7FEE7FEE7FEE786
:10025000FEE7FEE704480549054A064B70470000E3
:10026000810A000899010008700000207006002033
:10027000700200207002002070477047704775467A
:1002800000F02CF8AE4605006946534620F0070002
:10029000854618B020B5FFF7DDFFBDE820404FF0E0
:1002A00000064FF000074FF000084FF0000BAC467F
:1002B000ACE8C009ACE8C009ACE8C009ACE8C009CA
:1002C00021F007018D46704710B50446AFF300805A
:1002D0002046BDE81040FFF7A8BF00000048704767
:1002E0000800002001491820ABBEFEE726000200EE
:1002F0007047000080B50D2000F0C4FD002808BF45
:1003000080BD9FED070A012000F024F940F268004B
:10031000C2F20000002101600D2000F07FFD80BDD1
:10032000CDCCCC3CF0B581B09C4643F64403C4F23E
:1003300002031C6800F13E4044F4804400F1FF7069
:100340001C604FEAB0230424042B38BF4FEAB024CA
:10035000C81743F6084E01EB9070C4F2010E20F06E
:1003600003004FF600460B1A7044CFF6FF769B0051
:100370000F2587599D4027EA05058551855904FABF
:1003800003F32B43022A83510CD0012A19D0FAB966
:1003900043F60C42C4F2010201201368884018435E
:1003A000106015E00120DEF8002088400243CEF8FE
:1003B000002043F60C42C4F2010213681843106097
:1003C00006E00120DEF8002088401043CEF800004F
:1003D00001205EF8082C884010434EF8080C2820B5
:1003E0000A29B8BF17200529B8BF881D44B2204686
:1003F000614600F0F9FC204600F0CEFC01B0F0BDF3
:10040000F0B581B00546A0F18040A0F5023707F5B0
:1004100000604FEAB020144607280E464DD8DFE8AA
:1004200000F004121D313F4C4C4A00F071FA07F500
:1004300080604FEAB02006283FD8DFE800F0040FC4
:1004400023313E3E3C0000F06DFA4FEAB72005280C
:1004500033D8DFE800F003172532323000F06CFAB1
:1004600041F60040C4F20200854224D041F200006F
:10047000C4F20200854213D040F60040C4F20200EC
:1004800085421AD100F062FA41F60040C4F202003F
:10049000854210D041F20000C4F2020085420CD126
:1004A00000F05EFA41F60040C4F20200854208BF47
:1004B00000F060FA01E000F05DFA2846314622467D
:1004C00000F002F801B0F0BD80B549004FF0030C18
:1004D000D0F800E00CFA01F32EEA0303036003688E
:1004E00002FA01F11943016080BD000080B54900A6
:1004F0004FF0030CD0F808E00CFA01F32EEA0303E6
:100500008360836802FA01F11943816080BD0000B5
:1005100080B54FF0010CD0F804E00CFA01F32EEA9C
:1005200003034360436802FA01F11943416080BD4F
:1005300080B549004FF0030CD0F80CE00CFA01F341
:100540002EEA0303C360C36802FA01F11943C160D4
:1005500080BD000010B52DED028B84B003A902AA66
:10056000B0EE408A044600F065FC01A96A462046C8
:1005700000F038F90198C26A00990139032921D89D
:10058000013200EE102AB8EE400A20EE080AB7EE5B
:10059000001A30EE010ADFE801F002070C11BCEE90
:1005A000C00A80ED0D0A0DE0BCEEC00A80ED0E0A17
:1005B00008E0BCEEC00A80ED0F0A03E0BCEEC00A02
:1005C00080ED100A04B0BDEC028B10BD10B584B0F4
:1005D00003A902AA044600F02DFC01A96A462046A0
:1005E00000F000F9DDE902100222FFF709FFDDE962
:1005F00002100022FFF78CFFDDE902100122012426
:10060000FFF796FFDDE902100222FFF76FFF029865
:100610001C2101EA8002DDF80CC06FF0030101EA41
:10062000500060440F23016A03FA02F29143016211
:1006300001984FF6FF71C4F2000188420BDC40F2D2
:10064000FF71C4F20001884213DCB0F1804F2BD05F
:1006500040F2004115E044F2FF31C4F2010188424A
:1006600015DC0021C4F2010188421DD044F20001D2
:1006700015E040F60001C4F20001884205D040F6C2
:100680000041C4F2000188421CD102240CE044F273
:100690000041C4F20101884205D044F60001C4F2D1
:1006A000010188420ED1032402991C226FF003033A
:1006B00002EA810203EA510161440B6A04FA02F280
:1006C0001A430A62012100F089FA0198016821F0B9
:1006D00001010160016821F010010160C16A009A06
:1006E000013A032A54D84908DFE802F002142639F7
:1006F000826900F1340322F07002826182696FF036
:10070000020442F060028261826942F00802826162
:10071000012236E0826900F1380322F4E04282616E
:1007200082696FF0200442F4C0428261826942F41F
:1007300000628261102224E0C26900F1380322F0D5
:100740007002C261C2696FF4007442F06002C2615B
:10075000C26942F00802C2614FF4807211E0C269BE
:1007600000F1380322F4E042C261C2696FF4005420
:1007700042F4C042C261C26942F40062C2614FF4F5
:1007800080521960016A21400162016A11430162CD
:100790004421C4F20101A1F14402904203D10A684C
:1007A00042F400420A60016841F00101016004B0B6
:1007B00010BD000080B500F001F880BDB0B584B078
:1007C0000C4603A902AA054600F034FB01A96A46BB
:1007D000284600F007F80198214600F07DFA04B0A1
:1007E000B0BD0000B0B582B014460D4601A96A46FE
:1007F00000F020FB019840F60001C4F2020188429B
:100800001AD040F20041C4F20201884221D00021F6
:10081000C4F2020188423AD100980F2837D8DFE8A5
:1008200000F00822363636082536383F463636364A
:1008300036084FF0804047E000980638032826D855
:10084000DFE800F01419021E40F20040C4F200007C
:1008500058E000980338072819D8DFE800F00407AB
:100860000C2F384148514FF0804036E040F20040B4
:10087000C4F2000028E040F20040C4F200002CE086
:1008800040F20040C4F2000028600420206002B062
:10089000B0BD40F20040C4F2000000F57C4013E01F
:1008A00040F20040C4F2000000F57C4015E040F248
:1008B0000040C4F2000000F57C4023E040F200401C
:1008C000C4F2000000F58060286001201CE040F2C6
:1008D0000040C4F2000000F580602860022013E0B0
:1008E00040F20040C4F2000000F580600AE040F2EF
:1008F0000040C4F2000000F580602860042003E09E
:100900004FF0804028600320206002B0B0BD00009E
:1009100043F63000C4F20200016841F001010160B9
:100920007047000043F63000C4F20200016841F055
:10093000020101607047000043F63000C4F202007B
:10094000016841F0040101607047000043F6300087
:10095000C4F20200016841F0080101607047000024
:1009600043F63000C4F20200016841F0100101605A
:100970007047000043F63000C4F20200016841F005
:10098000800101607047000043F60800C4F20200D5
:10099000D0F8F81321F00701C0F8F813D0F8F813D5
:1009A00041F00201C0F8F81350F8081C41F00101B1
:1009B00040F8081C50F8081C8907FBD550F8081CA3
:1009C000542221F0807140F8081C50F8041C21F4D6
:1009D000800140F8041C50F8041C40F8041C50F836
:1009E000041C62F38E1140F8041C50F8041C082209
:1009F00062F3050140F8041C50F8041C21F4403156
:100A000040F8041C50F8081C41F0807140F8081CA4
:100A100050F8081C8901FBD4016821F00301016032
:100A2000016841F002010160016801F00C01082930
:100A3000FAD1016821F0F0010160016821F4E05170
:100A40000160016841F480510160016821F4604156
:100A5000016040F200004BF60051C2F20000C0F20B
:100A6000015101607047000080B500F001F880BDC1
:100A700040F26C00C2F20000016801310160704771
:100A80004EF68850CEF20000016841F4700101601A
:100A90007047000000000000B0B540F21044C4F2FE
:100AA00000042068C00708BFB0BD40F26805C2F26C
:100AB0000005286800F05AFC9FED110B53EC102B39
:100AC00000F0FAFA9FED100B53EC102B00F066FCCF
:100AD0009FED0F0B53EC102B00F046FA00F012FACA
:100AE00000EE100A0120FFF735FD2868411C102890
:100AF000C8BF00212960206820F001002060B0BD3F
:100B000000000000000031409A9999999999B93FE5
:100B10009A9999999999993FC16841F00101C160E9
:100B200070470000B0B5044600F058F82046FFF7C3
:100B3000F3FF4FF6FF70C4F20000844210DC40F275
:100B4000FF70C4F2000084421FDCB4F1804F38D043
:100B500040F20040C4F20000844236D11D2535E049
:100B600044F2FF30C4F2010084424FF019051ADC50
:100B70000020C4F20100844228D044F20000C4F2F4
:100B80000100844221D1182520E040F60000C4F283
:100B90000000844217D040F60040C4F200008442B6
:100BA00013D1322512E044F20040C4F20100844225
:100BB0000CD044F60000C4F20100844205D11A258D
:100BC00004E01C2502E01E2500E00025284600F078
:100BD000F3F8284600F01AF9B0BD000010B504463D
:100BE00040F6FF30C4F20000844219DD43F6FF7086
:100BF000C4F2010084422BDC40F60040C4F2000045
:100C000084423AD00020C4F20100844258D143F615
:100C10004000C4F20200426842F0010242604FE02C
:100C2000B4F1804F32D040F20040C4F20000844260
:100C30003ED040F60000C4F20000844240D143F6AA
:100C40004000C4F20200026842F00402026037E091
:100C500044F20000C4F20100844220D044F60000B7
:100C6000C4F2010084422BD143F64000C4F20200DA
:100C7000426842F48022426022E043F64000C4F21F
:100C80000200026842F00802026019E043F64000E8
:100C9000C4F20200026842F00102026010E043F672
:100CA0004000C4F20200426842F48032426007E031
:100CB00043F64000C4F20200026842F00202026001
:100CC000204600F009F8206820F01000206020681D
:100CD00040F00100206010BD10B543F60802C4F2D8
:100CE000020213689B0705D442F2004E1268C0F25C
:100CF000F40E03E04BF6005EC0F2015E40F60043E6
:100D0000C4F20003984202D0B0F1804F18D145F6EA
:100D1000C5234FEA5E1CC0F67C23ACFB0334E30919
:100D2000BEFBF3FC44F6D353C1F26203ACFB0332C7
:100D3000920951434FF0FF3202EBD412826218E065
:100D400045F6C5234FEA5E12C0F67C23A2FB0323BF
:100D5000DA09BEFBF2F244F6D354C1F26204A2FBFC
:100D60000424A20951434FF0FF3202EBD31289B29F
:100D700082620139C16210BDC1B200F01F000122C0
:100D800002FA00F04EF20012CEF2000242EAD10165
:100D900021F0030108607047002848BF704700F049
:100DA0001F01012202FA01F14EF200124009CEF2B7
:100DB000000242F820107047C1B200F01F0001226B
:100DC00002FA00F04EF20012CEF2000242EAD10125
:100DD00021F0030108607047E422C0F2E00209013B
:100DE00062F31F20017070474EF6145300F00F029B
:100DF000CEF2000309011A4400F16043B0F1FF3F55
:100E0000C8BF03F56442117070470000E421C0F2CE
:100E1000E00161F31F2020210170704743F6144266
:100E2000C4F201020121136801FA00F018431060B6
:100E3000704700004FF0FF3340F2000C03EB20132B
:100E4000C4F2020C00F00F00062B106016D8DFE889
:100E500003F004090E15151513000CF5806CC1F88C
:100E600000C070470CF5006CC1F800C070470CF56D
:100E7000406CC1F800C070470CF5E05CC1F800C0E0
:100E80007047000043F61441C4F20101096821FAD9
:100E900000F000F00100704700F002F8FEE70000EB
:100EA000B0B5FFF771FD40F20045C4F2000505F54D
:100EB000013420460D210022FFF7A2FA28464FF404
:100EC000FA71FFF72FFE2846FFF726FE1D20FFF7D9
:100ED00053FF1D200221FFF77FFF20460D21002236
:100EE0000023FFF71FFA2820FFF746FF28200321E1
:100EF000FFF772FF0120FFF769FB01201421FFF7C4
:100F000059FCB0BD21F0004201F00043A2F1605253
:100F1000B2F5801F28BFD2F17F6C0BD95FEA001CAD
:100F200043EAC20242EB507018BF704728BF20F05E
:100F300001007047B2F5801FBCBF184670474FEAEA
:100F4000410C1CF5001F02D2084600F020BC70B511
:100F500000F0CEFA00000089FFF7F6BF4FF0004026
:100F6000A0F580007047000010B591EA030F48BF5C
:100F700083F0004300F11883841A71EB030C05D24F
:100F8000121943EB0C03001B61EB0C014FEA1154E7
:100F9000A4EB135CDFF81CE11EEA430F18BF9EEAC6
:100FA000445F00F0748021EA045123EA0E0343F405
:100FB0008013DCF1200E32D322FA0CFE10EB0E006F
:100FC00023FA0CFE41EB0E01CCF1200E03FA0EFECB
:100FD00010EB0E00CCF1200E51F10001B1F5801F95
:100FE00032D201EB045112FA0EF2BDE8104058BFA4
:100FF0007047401C38BF5FEA420218BF70470028A4
:1010000014BF20F0010041F100014FEA410313F544
:10101000001F38BF7047A1F1C04100F0B7BA012AE4
:1010200043EB0302ACF1200CDCF11F0E32BF4FF09A
:10103000000E23FA0CF310EB030041EB0451B4EB68
:10104000115FD0D0A1EB045101F58011490801EBEB
:1010500004515FEA30000ED350F1000038BF12FA9D
:101060000EFE08D1BDE81040C9E7401C38BF5FEA5A
:101070004202CAD1C3E7BDE810404FEA410313F56D
:10108000001F38BF7047A1F1C04100F07FBA9EEA4F
:10109000445F08D011EA5E0FBDE8104004BF01F0C4
:1010A000004100207047BDE8104070B500F020FA04
:1010B00064FBBE3E0000E0FF2DE9C04130B4DFF824
:1010C000A4C23CEA111418BF3CEA131400F0ED80EE
:1010D0001CEA111481EA030544EAD57418BF1CEA1E
:1010E000131500F0C880A4EB050404F17F7404F527
:1010F00000344FF0004545EAC12145EAC32341EAE7
:10110000505143EA52534FEAC0204FEAC22299425B
:1011100008BF904200F09D804FEA13650FF244161D
:10112000765D4FEA134506FB05F7C7F1807706FBAE
:1011300007F74FEAD737A7FB03687642A7FB06CE2F
:10114000C8F5803838BFA8F1010807FB08E6A6FB00
:10115000028C4FF0000EE6FB03CEDCF1000CCEF16A
:10116000004E38BFAEF1010EA6FB0C584FF0000741
:10117000E6FB0E87A1FB08C6A0FB07CE16EB0E060A
:101180004FF0000545F10005E1FB076515F1E04E64
:101190007EBFA4F580345FEA46066D4116F18007F4
:1011A00045F100054FEA172747EA05674FEA15257D
:1011B0004FEA0666A6F1DE46B6F1805F20D93846D2
:1011C00005EBC47124F0010C01EB0C11BCF1FE6FB6
:1011D00002D8F0BCBDE8008124425CBF01F5801E4E
:1011E0009EEAC47F02D4F0BCBDE80081244200F135
:1011F0003980A1F1C041F0BCBDE8004100F0C6B9A2
:101200004FEAD02040EA41504FEAD1214FEAD222A2
:1012100042EA43524FEAD323A7FB028607FB036649
:1012200005FB02661EEA0E0F58BFA6EB0056B6EB92
:1012300000564FEA520E4EEAC37E18EB0E0E56EBE6
:10124000530EBCD518EB02085E417F1C55F100051A
:10125000B5E74FF480154FF000074FF000064FF050
:101260000008ACE701F1C04101F000414FF000007F
:10127000F0BCBDE800810CEA131511EA0C1F00D088
:101280000CE013EA0C1F00F026804FF0000081EA0A
:10129000030101F00041F0BCBDE80081F0BCBDE8F5
:1012A000004181EA030100F071B9F0BCBDE80041E2
:1012B00070B500F01DF900BF097EFC3E00F007B8D4
:1012C0004FF0000081EA030101F00041704781EA1C
:1012D000030100F05BB9F0BCBDE8004122494FF0CA
:1012E00000007047FFFDFBF9F7F5F4F2F0EEEDEBCF
:1012F000E9E8E6E4E3E1E0DEDDDBDAD8D7D5D4D314
:10130000D1D0CFCDCCCBCAC8C7C6C5C4C2C1C0BF5F
:10131000BEBDBCBBBAB9B8B7B6B5B4B3B2B1B0AF65
:10132000AEADACABAAA9A8A8A7A6A5A4A3A3A2A149
:10133000A09F9F9E9D9C9C9B9A9999989797969504
:1013400095949393929191908F8F8E8E8D8C8C8BA0
:101350008B8A898988888787868585848483838228
:10136000828181800000FF070000F87F10F00042BA
:1013700048BF4042B0FA80F310FA03F10AD0C3F13B
:101380001D0303F5806302EB03524FEA415002EB69
:10139000D12170474FF000007047000070B5DFF8B2
:1013A00048C11CEA111E1EBF1CEA13159EEA0C0F51
:1013B00095EA0C0F00F06F8081EA03044EEAD47EB8
:1013C000AE4421EA4C1123EA4C1341F4801143F45A
:1013D0008013AEF17F7EA1FB024CA0FB03653619A2
:1013E00055EB0C05A1FB034C4CF10003A0FB021CC8
:1013F00016EB0C06654153F10003094218BF46F095
:10140000010613F4007F0BD14FEA03314FEA053098
:1014100041EA155140EA165034036FF003020AE026
:101420004FEAC3214FEAC52041EA555140EA5650E0
:10143000F4026FF0020202EB2E4201EB025585EA44
:10144000CE710AD05FEA440C18BF24F0004450F17A
:10145000000041F1000120EAD47040F2FE7C6245B8
:1014600000D270BDA84214BF4FF080444FF04044FA
:10147000002E08BF0024BEF1806FA8BFA1F1C041BB
:10148000BDE8704080F2828001F1C04101F000416E
:101490004FF0000070470CEA13159EEA0C0F18BFBE
:1014A00095EA0C0F06D081EA030E4FF000000EF013
:1014B000004170BD00F01CF88900013E00F007B843
:1014C00000F009B84FEA430C5FEA5C5C08D081EA9F
:1014D000030100F05BB84FEA410C5FEA5C5CF6D1B7
:1014E00002494FF0000070470000FF070000F87F3E
:1014F0000EF1020E2EF0030E5EF8046B364205D498
:10150000012A43EB030515F5001F12D8012841EB12
:10151000010C1CF5001F0CD80ED14FEAD17C0CEB4E
:101520004C0C0CF1020C15F5001F08BF4CEBD37CE2
:1015300004E04FF0080C01E04FEAD37C0CEB4C05C3
:1015400026FA05F606F00706B6F1040C06D20EEBF5
:10155000860CBDE870404CF0010C6047DFE80CF0F1
:10156000090B02024FF00041A1F500214FF00000ED
:1015700070BD19461046012851EB010418BFD4F57F
:10158000001484BF002001F0004170BD0808A0F5E0
:1015900000114FEA3101704710B591EA030F48BFBF
:1015A00083F000433FF5E8AC841A71EB030C07D2DB
:1015B0008CF0004C121943EB0C03001B61EB0C0187
:1015C0004FEA1154A4EB135CDFF8A4E11EEA430FC9
:1015D00018BF9EEA445F00F0B48021EA045123EA78
:1015E0006E035242C3EB6E0338BF5B1EDCF1200E6C
:1015F00025D322FA0CFE10EB0E0043FA0CFE41EB51
:101600000E01CCF1200E03FA0EFE10EB0E00CCF111
:10161000200E51F1000129D401EB045112FA0EF20F
:10162000BDE8104058BF7047401C1CBFB2F1004FCE
:10163000704700280CBF491C20F00100704712EBD6
:10164000020E43EB030218BF4FF0010E4EEA4202B6
:10165000ACF1200CDCF11E0E56D943FA0CFE10EB57
:101660000E00CCF11E0E51F1FF31D5D50EF1010E59
:1016700012FA0EFE404141EB010101EB445C5FEACE
:101680005C5C10D901EB045110EBDE7038BFBEF189
:10169000004FBDE8104018BF704700280CBF491C20
:1016A00020F00100704734D24FEAD42C24F40064B7
:1016B00011F500111BD0B1FA81F20B3AA41AA41E45
:1016C000D2F12003914030FA03F31943904001EB2B
:1016D000CC7101EB0451002CBDE81040A8BF70474D
:1016E00001F1C04101F000414FF000007047B0FA35
:1016F00080F310FA03F102D1BDE810407047E41AFC
:10170000173C4805C90AE2E701EB0451BDE8104067
:10171000704749104FEA300001EB0451BDE810401A
:1017200002E04FF0000170474A0008BF0042F8D0C5
:10173000B2F5001F28BF704701F000414FF00000D4
:1017400070479EEA445F07D011EA5E0FBDE8104083
:1017500004BF002100207047BDE8104070B5FFF7BE
:10176000C7FE00BF40DFF63E104683F000417047E1
:101770000000E0FFF1EE100A4FF6FF71C0F2C03139
:1017800020EA010040F04070E1EE100A7047FF21AE
:1017900041EAD050C0057047B8170008000000208B
:1017A00008000000D4010008C0170008080000204D
:1017B00068060000F00100080024F40000000000AA
:040000050800019955
:00000001FF
