:020000040800F2
:100000008806002051020008590200085B0200081F
:100010005D0200085F0200086102000800000000A5
:100020000000000000000000000000006302000863
:10003000650200080000000067020008AD14000817
:100040006B0200086B0200086B0200086B020008DC
:100050006B0200086B0200086B0200086B020008CC
:100060006B0200086B0200086B0200086B020008BC
:100070006B0200086B0200086B0200086B020008AC
:100080006B0200086B0200086B0200080000000011
:100090000000000000000000000000006B020008EB
:1000A0006B0200086B0200086B0200086B0200087C
:1000B0006B0200086B020008111500086B020008B3
:1000C0006B0200086B0200086B0200086B0200085C
:1000D0006B0200086B0200086B02000800000000C1
:1000E0006B0200086B0200086B02000800000000B1
:1000F0000000000000000000000000006B0200088B
:10010000000000006B0200086B0200086B02000890
:1001100000000000000000000000000000000000DF
:100120006B0200086B0200086B0200086B020008FB
:100130006B0200080000000000000000000000004A
:100140000000000000000000000000006B0200083A
:100150006B0200086B0200086B0200086B020008CB
:100160006B0200086B0200080000000000000000A5
:10017000000000000000000000000000000000007F
:10018000000000006B0200080000000000000000FA
:100190006B0200086B02000800F002F800F049F85A
:1001A0000AA090E8000C82448344AAF10107DA45D2
:1001B00001D100F03EF8AFF2090EBAE80F0013F0DB
:1001C000010F18BFFB1A43F0010318479C250000DC
:1001D000BC250000103A24BF78C878C1FAD852076D
:1001E00024BF30C830C144BF04680C6070470000B1
:1001F0000023002400250026103A28BF78C1FBD830
:10020000520728BF30C148BF0B607047662902F013
:100210005E82002070471FB502F047FA00F09CFA9A
:1002200004000020002102F089F8E0601FBD10B535
:1002300010BD00F0ADFB1146FFF7EDFF01F03CFCF7
:1002400000F0CBFB03B4FFF7F2FF03BC00F00EFCA1
:100250000948804709480047FEE7FEE7FEE7FEE75A
:10026000FEE7FEE7FEE7FEE7FEE7FEE70448054996
:10027000054A064B70470000FD140008990100086C
:1002800088000020880600208802002088020020C4
:100290000FB4044910B503AA029800F04BFA10BC41
:1002A0005DF814FB680000202DE9F0410E4604467D
:1002B000002020622046E168884730B3252805D019
:1002C000D4E901219047206A401CF2E7E16820460A
:1002D00000278847050018D0A5F14100192802D849
:1002E00020354FF400673246294620462760FFF745
:1002F0008DFF40B1012804D0F61D26F00706083610
:10030000D8E7361DD6E72846DAE7206ABDE8F0814F
:100310007047704770472DE9FF4F0C461E464FF05F
:10032000FF378BB0D2E90001DDF860800A908A4681
:10033000C1F30A5505B93D46002108464FF00000BB
:10034000BAF1000F00F4400005DA00EB80004FF432
:10035000400101EA50004FEA9059B9F1010F00DD68
:10036000B9460A9850EA4A000ED044F61050A5F259
:10037000FF3545432F14B8F1000F1ED07542291EDA
:100380001EDDC9F100021CE0B8F1010F4FF00000C2
:1003900001D0302103E0F24305E02154401CB0427B
:1003A000FBDB30460022002121540B99C1F8088064
:1003B000C1E900200FB0BDE8F08FBD1B6D1CDEE76A
:1003C0004A4600DA694206A800F068FA06AB93E8EC
:1003D000070003AB83E8070050460A9901F0CDFB04
:1003E0008DE80700A0F500501F3800900398002DFD
:1003F0000ADD42F21F014A460844002303A9039084
:10040000684601F037FE09E0A0F500504A461F3863
:10041000002303A90390684601F041FE8DE8070020
:100420000004000C03D04FF0FF30410800E01046FC
:10043000B8F1000F03D00022009215461EE0751E91
:1004400005D400F08DF9303262556D1EF9D5B346F2
:100450000122084302D000227F1C04E020783028CB
:1004600001D100227F1E002A099784D01DE0112DA2
:1004700007DA00F075F9303262556D1C50EA01025E
:10048000F5D1084302D00098C8B10EE00021681EE3
:1004900005E0235C625C63542254401E491C814287
:1004A000F7DBAB46A81B401E0990002004F80B00A8
:1004B0000B98099AC0F80880C0E9002B7AE711264A
:1004C0004FF0000857E72DE9F04F88460446D21D4B
:1004D00022F0070191B0D1E90001CDE90A0101F054
:1004E00015FF02460B98C00F01D02D2007E02068B1
:1004F000810701D52B2002E0202101EAC000032A58
:10050000099001D0072A05DB03464146204600F04A
:1005100085F90BE12078800601D5E06900E006202E
:10052000B8F1650F814606D0B8F1660F18D0B8F162
:10053000670F70D131E00020B9F1110F009001DB9D
:10054000112301E009F101030AAA01A90CA8FFF790
:10055000E2FEDDE90C70002609F10105834647E063
:1005600001204B4600904FF000470AAA01A90CA8B1
:10057000FFF7D1FEDDE90DB00C995D46002610B9FC
:1005800009F101000D18B9EB050003D4C0F1FF36E5
:1005900009F10105A5EB09002BE0B9F1010F01DA22
:1005A0004FF001090020B9F1110F0090484601DD1C
:1005B000112300E003460AAA01A90CA8FFF7ABFE2D
:1005C000DDE90C704D4600268346207800070AD4EA
:1005D000AB4500DA5D4601A8012D04DD411911F893
:1005E000011C302907D04F4502DA17F1040F04DA55
:1005F000012082460FE06D1EEEE7002F02DCED1BAE
:100600003E4403E0781CA84200DD7D1CB81B00F1CD
:10061000010A4FF000472078000703D4AA4501DB08
:100620004FF0FF3A0021B7F1004F0DF143088DF86C
:10063000431024D002202B23002F01DA7F422D23E8
:100640000A21021EA0F1010000DC5FB197FBF1FC62
:1006500097FBF1F201FB1C7C17460CF1300C08F8FB
:1006600001CDEEE7A8F1010003702188090501D54D
:10067000452100E06521A0F1010800F8011C09985E
:100680000FA9A1EB0807FF1D00B10120411901EBE3
:10069000EA70A1693844081A401EA0612078C0069B
:1006A00002D42046AFF30080099828B1D4E9012193
:1006B0009047206A401C20622078C00622D5204640
:1006C000AFF300801EE0002E04DBB34502DD01A87D
:1006D000805D00E03020D4E901219047206A401C71
:1006E0002062761CAAF101005FEA000A0AD100F03C
:1006F00033F8C0680168405CD4E901219047206A62
:10070000401C2062281EA5F10105DCDC07E0D4E9CD
:10071000012118F8010B9047206A401C2062381E06
:10072000A7F10107F3DC2046AFF30080032011B0EE
:1007300041E60000074B70B50D467B4400F05BF8C6
:100740000446284600F01CF910B14FF0FF3070BD90
:10075000204670BD43130000004870472800002069
:1007600030B5B0F10A0271F100034FEA900E4EEA83
:10077000817EB0EB0E0061EB91014FEA101E4EEA54
:10078000017E10EB0E0041EB11114FEA102E4EEAE4
:10079000016E10EB0E0041EB11214FEA104E4EEAB4
:1007A000014E10EB0E0041EB1141401841F10001E8
:1007B0004FEAD00040EA41704FEAD1014FEA81048C
:1007C00044EA907410EB800544EB01046D1944EB8E
:1007D0000404521BA3414FF0000348BF0A3200D566
:1007E00030BD401C41F1000130BD000001694A1CD0
:1007F00002610878704700B58FB0CDE90131002162
:10080000059105497944CDE9031011466846FFF783
:100810004BFD0FB000BD0000E5FFFFFF2DE9F041EB
:100820001F46044603260168072A01F4006004DB22
:1008300008B116A505E016A503E008B115A500E06E
:1008400015A521F010002060A069C01EA0610FB1A5
:10085000401EA0612046AFF300804FB1D4E90121D2
:1008600038469047206A401C2062C01C206206E087
:10087000206AFAE7D4E9012115F8010B9047761EAA
:10088000F8D22046AFF30080BDE8F0814E414E0023
:100890006E616E00494E4600696E66002DE9F047B4
:1008A000814616468AB0354878440DC88DE80D005B
:1008B00032487844801C03AC0DC884E80D0041F632
:1008C0009B300844372190FBF1F290FBF1F5A5F144
:1008D000800501FB12041B3C02D56442012000E0AC
:1008E0000020DFF898A080460027FA44AAF1BE0A4B
:1008F0000EE0E0070AD03246684607EB47010123C5
:100900000AEB810101F0CBFB8DE8070064107F1C2E
:10091000002CEED1194F7F44AE3F19E0E80715D007
:1009200007EB04100DF1180A90E80E008AE80E009B
:10093000C068F04201D1981908903246012306A9F7
:1009400003A801F0ACFB03AB83E807006D10641C47
:10095000002DE3D14FF0010332466946B8F1000F94
:1009600003A802D001F086FB01E001F098FBC9E981
:100970000001C9F808200AB0BDE8F087A41E0000F5
:10098000007B00F08000704700487047080000209E
:100990007546FFF7F9FFAE4605006946534620F05D
:1009A0000700854618B020B5FFF760FCBDE8204081
:1009B0004FF000064FF000074FF000084FF0000B1B
:1009C000AC46ACE8C009ACE8C009ACE8C009ACE88A
:1009D000C00921F007018D46704710B50446AFF3FA
:1009E00000802046BDE81040FFF72CBC000000004E
:1009F00030B44FF0013C50F8042B51F8043BCCFAD2
:100A000052F4D51A20D1FCB950F8042B51F8043B0C
:100A1000CCFA52F4D51A17D1B4B950F8042B51F8C6
:100A2000043BCCFA52F4D51A0ED16CB950F8042B11
:100A300051F8043BCCFA52F4D51A05D1002CDAD087
:100A400030BC4FF00000704729BAB1FA81F111F0C3
:100A50001801D1F120008440F2D1CA40CB4012F0FD
:100A6000FF0213F0FF0330BCD01A70470149182071
:100A7000ABBEFEE72600020070470000F0B581B073
:100A80000546A0F18040A0F5023707F500604FEA67
:100A9000B020144607280E464DD8DFE800F00412B7
:100AA0001D313F4C4C4A00F055FC07F580604FEA81
:100AB000B02006283FD8DFE800F0040F23313E3E87
:100AC0003C0000F051FC4FEAB720052833D8DFE89E
:100AD00000F003172532323000F050FC41F60040A0
:100AE000C4F20200854224D041F20000C4F20200A8
:100AF000854213D040F60040C4F2020085421AD16C
:100B000000F046FC41F60040C4F20200854210D0DD
:100B100041F20000C4F2020085420CD100F042FC18
:100B200041F60040C4F20200854208BF00F044FCD8
:100B300001E000F041FC28463146224600F002F870
:100B400001B0F0BD80B549004FF0030CD0F800E0D3
:100B50000CFA01F32EEA03030360036802FA01F1C1
:100B60001943016080BD000080B549004FF0030CBF
:100B7000D0F808E00CFA01F32EEA030383608368DF
:100B800002FA01F11943816080BD000080B54FF089
:100B9000010CD0F804E00CFA01F32EEA03034360E1
:100BA000436802FA01F11943416080BD80B54900F4
:100BB0004FF0030CD0F80CE00CFA01F32EEA03031B
:100BC000C360C36802FA01F11943C16080BD00002F
:100BD000022905D0012914BF403034300068704725
:100BE0003830006870470000B0B584B00C4603A9E7
:100BF00002AA054600F01CFF01A96A46284600F03B
:100C0000BDF8542060430199013888624FF6FF70A7
:100C1000C86204B0B0BD000070B584B003A902AAD8
:100C2000044600F005FF01A96A46204600F0A6F838
:100C3000DDE90210009D0222FFF720FFDDE902102E
:100C40000322FFF791FF019C4FF6FF70C4F20000F2
:100C500084420BDC40F2FF70C4F20000844213DCDB
:100C6000B4F1804F2ED040F2004015E044F2FF3046
:100C7000C4F20100844216DC0020C4F20100844268
:100C800020D044F2000016E040F60000C4F200005C
:100C9000844205D040F60040C4F20000844220D1D6
:100CA0000299022010E044F20040C4F201008442A4
:100CB00005D044F60000C4F20100844211D102992B
:100CC000032001E0029901201C22039B6FF0030620
:100CD00002EA810206EA510119440B6A9040184366
:100CE000086220460121012600F07EFC5320A0620C
:100CF0004FF6FF70E06220680A2120F001002060BA
:100D0000A06920F00300A061A06920F44070A061F8
:100D1000E06920F00300E061E06920F44070E061E8
:100D2000A06940F00100A061A06940F48070A0615A
:100D3000E06940F00100E061E06940F48070E0614A
:100D40006FF0030000EB8500226A814022EA010176
:100D50002162216A06FA00F008432062E06806FA80
:100D600005F10843E060E06840F00100E0602068C1
:100D700040F00100206004B070BD0000B0B582B04A
:100D800014460D4601A96A4600F052FE019840F64D
:100D90000001C4F2020188421AD040F20041C4F2BC
:100DA0000201884221D00021C4F20201884241D1CF
:100DB00000980F283ED8DFE800F008333D3D3D089D
:100DC000293D3F464D3D3D3D3D084FF080404EE0C2
:100DD0000098063803282DD8DFE800F0181D0225FA
:100DE00040F20040C4F200004FE0009803380728AA
:100DF00020D8DFE800F0150B10363F04044840F21D
:100E00000040C4F2000000F580603EE040F2004087
:100E1000C4F200002BE040F20040C4F200002FE0DA
:100E20004FF080402CE040F20040C4F20000286007
:100E30000420206002B0B0BD40F20040C4F20000C7
:100E400000F57C4013E040F20040C4F2000000F5E1
:100E50007C4015E040F20040C4F2000000F57C4008
:100E600013E040F20040C4F2000000F5806028600A
:100E700001200CE040F20040C4F2000000F5806068
:100E80002860022003E04FF08040286003202060AB
:100E900002B0B0BD70B584B014460D4603A902AAD5
:100EA000064600F0C5FD01A96A463046FFF766FF19
:100EB0006FF0030000EB850301980122066A02FA35
:100EC00003FC26EA0C060662C668AA4026EA02016E
:100ED0006E1E032EC1603BD8DFE806F0022D112004
:100EE000064656F8181F21F0030131600099356855
:100EF000012914BF45F0020545F0010527E006462B
:100F000056F81C1F21F00301316000993568032950
:100F100014BF45F0020545F0010518E0064656F8F5
:100F20001C1F21F4407131600099356804290CD1EF
:100F300045F480750BE0064656F8181F21F4407101
:100F40003160009935680229F2D045F400753560AA
:100F50000A21056A01FA03F625EA0601022C01625C
:100F600006D0012C08D06CB9016AF3430B4008E0AD
:100F7000016A41EA060304E00221066A994046EA52
:100F800001030362016A41EA0C010162C168114375
:100F9000C16004B070BD000010B584B003A902AAFE
:100FA000044600F045FD01A96A46204600F0FCF821
:100FB000DDE902100222FFF761FDDDE902100022E7
:100FC000FFF7E4FDDDE9021001220124FFF7EEFD49
:100FD000DDE902100222FFF7C7FD02981C2101EA99
:100FE0008002DDF80CC06FF0030101EA500060449C
:100FF0000F23016A03FA02F29143016201984FF64E
:10100000FF71C4F2000188420BDC40F2FF71C4F2B0
:101010000001884213DCB0F1804F2BD040F2004138
:1010200015E044F2FF31C4F20101884215DC0021D1
:10103000C4F2010188421DD044F2000115E040F6DF
:101040000001C4F20001884205D040F60041C4F21C
:10105000000188421CD102240CE044F20041C4F299
:101060000101884205D044F60001C4F20101884222
:101070000ED1032402991C226FF0030302EA8102BD
:1010800003EA510161440B6A04FA02F21A430A624C
:10109000012100F005FB0198016821F001010160C8
:1010A000016821F010010160C16A009A013A032A27
:1010B00054D84908DFE802F002142639826900F1A9
:1010C000340322F07002826182696FF0020442F000
:1010D00060028261826942F008028261012236E088
:1010E000826900F1380322F4E042826182696FF084
:1010F000200442F4C0428261826942F4006282614B
:10110000102224E0C26900F1380322F07002C261AB
:10111000C2696FF4007442F06002C261C26942F0B9
:101120000802C2614FF4807211E0C26900F1380315
:1011300022F4E042C261C2696FF4005442F4C0423A
:10114000C261C26942F40062C2614FF48052196008
:10115000016A21400162016A114301624421C4F223
:101160000101A1F14402904203D10A6842F4004215
:101170000A60016841F00101016004B010BD000087
:10118000B0B584B00C4603A902AA054600F050FC95
:1011900001A96A46284600F007F80198214600F0A8
:1011A0004DFB04B0B0BD0000B0B582B014460D4692
:1011B00001A96A4600F03CFC019840F60001C4F227
:1011C000020188421AD040F20041C4F20201884272
:1011D00021D00021C4F2020188423AD100980F28A0
:1011E00037D8DFE800F00822363636082536383F93
:1011F0004636363636084FF0804047E000980638CD
:10120000032826D8DFE800F01419021E40F200403F
:10121000C4F2000058E000980338072819D8DFE826
:1012200000F004070C2F384148514FF0804036E061
:1012300040F20040C4F2000028E040F20040C4F256
:1012400000002CE040F20040C4F2000028600420BE
:10125000206002B0B0BD40F20040C4F2000000F5D2
:101260007C4013E040F20040C4F2000000F57C40F6
:1012700015E040F20040C4F2000000F57C4023E09D
:1012800040F20040C4F2000000F5806028600120B8
:101290001CE040F20040C4F2000000F580602860CD
:1012A000022013E040F20040C4F2000000F580602C
:1012B0000AE040F20040C4F2000000F580602860BF
:1012C000042003E04FF0804028600320206002B03B
:1012D000B0BD000070B584B00C4643F6080603A903
:1012E00002AA0546C4F2020600F0A2FB01A96A4662
:1012F0002846FFF759FF0198816A326892075ABF62
:10130000326810235423009A013A032A20D801316D
:10131000B3FBF1F101EE104A00EE101AB8EE400AEC
:10132000B8EE411A21EE000ABFEE001A30EE010AB3
:10133000BCEEC00A10EE101ADFE802F00204060844
:10134000343004E0383002E03C3000E040300160EE
:1013500004B070BD43F63000C4F20200016841F0F1
:10136000010101607047000043F63000C4F2020042
:10137000016841F0020101607047000043F630004F
:10138000C4F20200016841F00401016070470000EE
:1013900043F63000C4F20200016841F00801016028
:1013A0007047000043F63000C4F20200016841F0CB
:1013B000100101607047000043F63000C4F20200E3
:1013C000016841F0800101607047000043F60800A9
:1013D000C4F20200D0F8F81321F00701C0F8F813A6
:1013E000D0F8F81341F00201C0F8F81350F8081CC7
:1013F00041F0010140F8081C50F8081C8907FBD592
:1014000050F8081C542221F0807140F8081C50F854
:10141000041C21F4800140F8041C50F8041C40F81E
:10142000041C50F8041C62F38E1140F8041C50F8A0
:10143000041C082262F3050140F8041C50F8041C47
:1014400021F4403140F8041C50F8081C41F0807130
:1014500040F8081C50F8081C8901FBD4016821F0F1
:1014600003010160016841F002010160016801F0BF
:101470000C010829FAD1016821F0F001016001682E
:1014800021F4E0510160016841F48051016001687C
:1014900021F46041016040F200004BF60051C2F2BD
:1014A0000000C0F2015101607047000080B500F0FB
:1014B00001F880BD40F27000C2F200000168013105
:1014C0000160704780B54EF21000CEF2000000219E
:1014D0000160026842F00402026044F61F02C0F29A
:1014E000010242608160016841F00201016001680F
:1014F00041F00101016000F067FA80BD4EF68850AE
:10150000CEF20000016841F47001016070470000F4
:10151000B0B540F60004C4F20004204600F0C8FA5A
:1015200048B140F27400C2F200000168013101606C
:10153000204600F069FA2046012100F0B3FA78B1A4
:10154000204601210125FFF743FB00EE100A40F27F
:101550007800B8EE400AC2F2000080ED000A37E0E1
:101560002046022100F09EFA002808BFB0BD2046A8
:1015700002210225FFF72CFB00EE100A40F27C004E
:10158000B8EE400AC2F2000080ED000A40F274009A
:10159000C2F200000168E26A0132514301EE101A02
:1015A00040F27801C2F2000191ED002AB8EE411A32
:1015B00030EE420A30EE010AB2EE041A40F2800127
:1015C00020EE010AC2F2000181ED000A0021016053
:1015D0002046294600F010FAB0BD0000C16841F075
:1015E0000101C16070470000B0B5044600F058F832
:1015F0002046FFF7F3FF4FF6FF70C4F2000084426D
:1016000010DC40F2FF70C4F2000084421FDCB4F131
:10161000804F38D040F20040C4F20000844236D1FE
:101620001D2535E044F2FF30C4F2010084424FF042
:1016300019051ADC0020C4F20100844228D044F2CB
:101640000000C4F20100844221D1182520E040F6B8
:101650000000C4F20000844217D040F60040C4F2FB
:101660000000844213D1322512E044F20040C4F25B
:10167000010084420CD044F60000C4F20100844210
:1016800005D11A2504E01C2502E01E2500E00025F6
:10169000284600F089F9284600F0A6F9B0BD000000
:1016A00010B5044640F6FF30C4F20000844219DD54
:1016B00043F6FF70C4F2010084422BDC40F6004088
:1016C000C4F2000084423AD00020C4F201008442F7
:1016D00058D143F64000C4F20200426842F00102D1
:1016E00042604FE0B4F1804F32D040F20040C4F28B
:1016F000000084423ED040F60000C4F20000844264
:1017000040D143F64000C4F20200026842F00402F5
:10171000026037E044F20000C4F20100844220D0AD
:1017200044F60000C4F2010084422BD143F640008D
:10173000C4F20200426842F48022426022E043F692
:101740004000C4F20200026842F00802026019E0A0
:1017500043F64000C4F20200026842F00102026057
:1017600010E043F64000C4F20200426842F48032C6
:10177000426007E043F64000C4F20200026842F013
:1017800002020260204600F009F8206820F01000F4
:101790002060206840F00100206010BD10B543F6C5
:1017A0000802C4F2020213689B0705D442F2004EFD
:1017B0001268C0F2F40E03E04BF6005EC0F2015E68
:1017C00040F60043C4F20003984202D0B0F1804FCB
:1017D00018D145F6C5234FEA5E1CC0F67C23ACFB4E
:1017E0000334E309BEFBF3FC44F6D353C1F26203B6
:1017F000ACFB0332920951434FF0FF3202EBD4129B
:10180000826218E045F6C5234FEA5E12C0F67C23DB
:10181000A2FB0323DA09BEFBF2F244F6D354C1F271
:101820006204A2FB0424A20951434FF0FF3202EBF1
:10183000D31289B282620139C16210BD43F6080237
:10184000C4F2020213689B0705D4126842F20042F8
:10185000C0F2F40203E04BF60052C0F2015240F62F
:101860000043C4F20003984202D0B0F1804F0DD182
:10187000510945F6C522C0F67C22A1FB02124FF0A9
:10188000FF3101EBD2128262C16270474DF6836371
:10189000C4F21B33A2FB03239A0D51430F22826231
:1018A0004FF0FF3212FA81F1C162704780B543F602
:1018B0003000C4F20200016941F2171241F4003114
:1018C0000161016841F0010101600020C4F20200E1
:1018D000016821F0F0010160016841F0A0010160A0
:1018E000016A41F4EE410162816841F0F0018160DA
:1018F000C16821F0F001C160C16841F05001C160D0
:10190000416821F00C01416044F20C40C4F2000037
:10191000016821F400510160016821F480510160E7
:10192000016821F480610160416821F44051416007
:10193000016821F40041016050F8041C114340F893
:10194000041C016841F00C010160816841F0C00194
:101950008160016841F400510160016841F020019B
:10196000016000F039F800F017F880BD62B14FF067
:10197000000C00BF03681B06FCD511F80C300CF1FD
:10198000010C94454360F5D101684906FCD5016816
:1019900021F04001016070474EF20410CEF20000C9
:1019A0004021016070470000C1B200F01F00012219
:1019B00002FA00F04EF20012CEF2000242EAD10129
:1019C00021F00301086070474EF62350CEF200006C
:1019D00000210170704700004EF22640CEF2000058
:1019E0001021017070470000E421C0F2E00161F3B2
:1019F0001F202021017070470122036902FA01F1C2
:101A000023EA010101617047016921F001010161CF
:101A10007047000040F27001C2F200010A6800BF86
:101A20000B689B1A8342FBD30020086070470000BC
:101A30004FF0FF3340F2000C03EB2013C4F2020C12
:101A400000F00F00062B106016D8DFE803F0040941
:101A50000E15151513000CF5806CC1F800C0704709
:101A60000CF5006CC1F800C070470CF5406CC1F873
:101A700000C070470CF5E05CC1F800C07047000082
:101A800010B582B004468DF8070044F20040C4F25D
:101A900000000DF107010122FFF768FF204602B0A8
:101AA00010BD00000069C84000F001007047000050
:101AB000006900F00100704700F03AF89FED160B46
:101AC0009FED171B40F2800940F26C0AC2F2000938
:101AD00055EC104B57EC116BC2F2000A0FF248089C
:101AE000D9F8000000F070FD22462B4600F06EFC95
:101AF00032463B4600F06AFC00F036FCCAF80000B3
:101B000000F062FD024640460B46FEF7C1FB4FF473
:101B1000FA70FFF77FFFE3E79CC420B07268A13F33
:101B2000000000000000E03F256620636D0D0A0004
:101B300080B5FFF74BFCFFF7C5FCFFF7B7FE0620AB
:101B4000FFF72AFA06204CF25031FFF719FB062066
:101B50000A21FFF7BFFB1620FFF75EF816200A21C7
:101B6000FFF742F8162001210022FFF793F9162013
:101B700002210122FFF78EF980BD5FEA400C08BF09
:101B800091F0000F4FEA8C234FEAC12243EA5151F2
:101B90004FEA1C5018BF00F5F0404FEA300018BF64
:101BA00041F000415FEA6C5C00F02980BCF1FF3F2E
:101BB00008BF40F080407047130C06BF12044FF07E
:101BC000100C4FF0000C130E04BF12020CF1080CA5
:101BD000130F04BF12010CF1040C930F04BF920009
:101BE0000CF1020CD30F04BF52000CF1010C114692
:101BF0004FF00002A0F11F00A0EB0C00704711F0A5
:101C0000004F08BF704731F000413FF4D5AF0B0CD7
:101C100006BF09044FF0100C4FF0000C0B0E04BF70
:101C200009020CF1080C0B0F04BF09010CF1040CA4
:101C30008B0F04BF89000CF1020CCB0F04BF4900CD
:101C40000CF1010CCCF1200322FA03F341EA030169
:101C500002FA0CF2A0EB0C0000F10100704700004A
:101C600023F07F4720F07F4C80EA030000F0004023
:101C7000ACEB070303F57C5303F1FF032DE9804927
:101C800009B44FEA144324EA03484FEA154B25EA06
:101C90000B4E0FF2042606EB13273E7803FB066774
:101CA000C7F5000707FB06F64FEAD64606F102061F
:101CB0004FEA543707FB066CCCF1005C4FEA1C4737
:101CC0002CEA074C0CFB06F507FB06F404EB154663
:101CD0004FEA961649085FEA320234BF00204FF0FF
:101CE00000404FEAD13706FB07FC4FEA1C4C0CFBC7
:101CF0000BF7D21B03FB0CF761EB07010CFB0EF794
:101D0000B0EB074072EB17420CFB08F734BFA2EBB5
:101D10000742B2EB074261EB17414FEA0C444FEA2E
:101D2000910706FB07FC4FEA1C4C0CFB0BF7B0EBD2
:101D3000C74072EB573203FB0CF734BFA2EBC7422C
:101D4000B2EBC74261EB57310CFB0EF7B0EBC700AB
:101D500072EB57720CFB08F734BFA2EBC702B2EB71
:101D6000C70261EB57714FEA816141EA92114FEA74
:101D7000826242EA90124FEA806004EBCC04039F37
:101D80004FEAD13706FB07FC4FEA1C4C0CFB0BF764
:101D9000D21B03FB0CF761EB07010CFB0EF7B0EB5A
:101DA000074072EB17420CFB08F734BFA2EB074267
:101DB000B2EB074261EB17414FEA8C5504EB9C24D0
:101DC0004FEA910706FB07FC4FEA1C4C0CFB0BF794
:101DD000B0EBC74072EB573203FB0CF734BFA2EBFA
:101DE000C742B2EBC74261EB57310CFB0EF7B0EBC9
:101DF000C70072EB57720CFB08F734BFA2EBC702A7
:101E0000B2EBC70261EB57714FEA816141EA92116F
:101E10004FEA826242EA90124FEA806015EB4C254D
:101E200044F100044FEAD13706FB07FC4FEA1C4C93
:101E30000CFB0BF7D21B03FB0CF761EB07010CFB50
:101E40000EF7B0EB074072EB17420CFB08F734BFFC
:101E5000A2EB0742B2EB074261EB17414FEA813137
:101E600041EA92414FEA823242EA90424FEA8030A0
:101E70004FEA0C7615EB1C1544F1000448EA0343C5
:101E80004EEA0B484FF0000EB2EB080C71EB030763
:101E900024BF624639464EEB0E0E4FF0000B001881
:101EA000524149414BEB0B0BB2EB080C71EB0307B2
:101EB0007BF1000B24BF624639464EEB0E0E4FF00D
:101EC000000B0018524149414BEB0B0BB2EB080CD5
:101ED00071EB03077BF1000B24BF624639464EEBE2
:101EE0000E0E51EA020718BF46F0010616EB0E76F9
:101EF00055F1000254F1000103D5BDE88901BDE8A8
:101F00000088BDE88901BDE80048B619524141EB9F
:101F10000101A3F10103704780807F7E7D7C7B7A85
:101F20007978777676757473727171706F6E6E6D85
:101F30006C6C6B6A6A69686867666665646463632B
:101F400062616160605F5F5E5E5D5D5C5C5B5B5AB1
:101F50005A5959585857575656555555545453531E
:101F600052525251515050504F4F4F4E4E4D4D4D79
:101F70004C4C4C4B4B4B4A4A4A49494948484847C4
:101F80004747474646464545454444444443434302
:101F900043424242424141419C46002B30D47700AB
:101FA0002BD04FEA37071CB503B44FF010004FF0A9
:101FB0001001BAF1000F06D0BCF1000FDCBF40F0F9
:101FC000080040F008014FF000000FBCBDE81040D1
:101FD0000BF1010BBBF1010F08BF5FEA170722BF2E
:101FE00012F1010211F101014FF0004143F1000330
:101FF00000F0004043EA00007047F9D35708D0E7EB
:1020000046EA06464FEA164613F1400F1FDD13F16C
:10201000200FDFBF16430A46002120335B42BED0AB
:10202000C3F1200746EA06464FEA164602FA07F7CA
:1020300046EA070622FA03F2C3F1200701FA07F77E
:1020400042EA070221FA03F14FF00003A7E746EA4C
:10205000020646EA06464FEA164646EA0106BCBFB5
:1020600046EA0646360C4FF000034FF000024FF0F0
:10207000000194E72DE9804C70B49A46934691E8AC
:10208000380007C831EA400C48BF34EA430C03D596
:10209000FFF7E6FDFFF780FFF0BCBDE8008C2DE9FF
:1020A000804C70B49A46934691E8380007C810F007
:1020B000804F08BF13F0804F03D100F005F8FFF701
:1020C0006BFFF0BCBDE8008C20F07F4723F07F4C15
:1020D00080EA030000F0004007EB0C03A3F57C53FB
:1020E000A3F1FE0392F0000F00F0B38095F0000F13
:1020F00000F077802DE901494FEA114021EA0048BC
:102100004FEA144624EA064700FB06FC08FB06F6E5
:1021100007FB08F818EB06484CEB164C00FB07F7DA
:1021200018EB07484CEB17404FEA124B22EA0B4ED4
:102130004FEA154625EA06470BFB06FC0EFB06F6A2
:1021400007FB0EFE1EEB064E4CEB164C0BFB07F787
:102150001EEB074E4CEB174B18EB0B0840F1000041
:1021600018EB0E0B58EB000840F100008F1A4FF0EF
:1021700000014FF000063CBFC943661B14BFB5EB1E
:10218000040C00213CBFC943F61B4FEA174427EA61
:1021900004454FEA1C472CEA074C04FB076205FB89
:1021A00007F70CFB05F616EB074642EB174204FB5C
:1021B0000CFC16EB0C4642EB1C421BEB060658EBE4
:1021C000020241414EEA8E0E46EA9E0601D5BDE866
:1021D0000189B619524141EB0101A3F10103BDE8A8
:1021E00001894FEA144524EA05464FEA114721EADE
:1021F000074C05FB07F406FB07F70CFB06F111EB98
:10220000074144EB174405FB0CFC11EB0C4144EB7C
:102210001C444FEA124722EA074C05FB07F206FB73
:1022200007F70CFB06F616EB074642EB174205FBD9
:102230000CFC16EB0C4642EB1C456A1854F10001ED
:1022400048BF7047B619524141EB0101A3F10103A8
:10225000704795F0000F37D04FEA114221EA02464D
:102260004FEA144724EA074C02FB07F106FB07F785
:102270000CFB06F414EB074441EB174102FB0CFC8A
:1022800014EB0C4441EB1C414FEA154725EA074C7F
:1022900002FB07F506FB07F70CFB06F616EB0746F5
:1022A00045EB174502FB0CFC16EB0C4645EB1C42BC
:1022B000121951F1000148BF7047B619524141EB64
:1022C0000101A3F1010370474FEA144524EA0546D2
:1022D0004FEA114721EA074C05FB07F106FB07F718
:1022E0000CFB06F212EB074241EB174105FB0CFC1D
:1022F00012EB0C4251EB1C414FF0000648BF7047F7
:10230000921841EB0101A3F10103704703B4019856
:102310004100009850EAC12018BF04204A0D18BFA0
:1023200040F0010040F2FF72B2EB515F08BF40F095
:102330000200012808BF052002B0704710B500292F
:102340000AD00878002807D005487844FEF750FBEB
:10235000002801D0002010BD0248784410BD0000C4
:102360003E0400003604000021F0004201F000436A
:10237000A2F16052B2F5801F28BFD2F17F6C0BD959
:102380005FEA001C43EAC20242EB507018BF70477C
:1023900028BF20F001007047B2F5801FBCBF18466F
:1023A00070474FEA410C1CF5001F02D2084600F0AE
:1023B00089B970B500F0B4F800000089FFF7F6BFE6
:1023C0004FF00040A0F580007047000070B5DFF8C6
:1023D00048C11CEA111E1EBF1CEA13159EEA0C0F11
:1023E00095EA0C0F00F06F8081EA03044EEAD47E78
:1023F000AE4421EA4C1123EA4C1341F4801143F41A
:102400008013AEF17F7EA1FB024CA0FB0365361961
:1024100055EB0C05A1FB034C4CF10003A0FB021C87
:1024200016EB0C06654153F10003094218BF46F054
:10243000010613F4007F0BD14FEA03314FEA053058
:1024400041EA155140EA165034036FF003020AE0E6
:102450004FEAC3214FEAC52041EA555140EA5650A0
:10246000F4026FF0020202EB2E4201EB025585EA04
:10247000CE710AD05FEA440C18BF24F0004450F13A
:10248000000041F1000120EAD47040F2FE7C624578
:1024900000D270BDA84214BF4FF080444FF04044BA
:1024A000002E08BF0024BEF1806FA8BFA1F1C0417B
:1024B000BDE8704080F2828001F1C04101F000412E
:1024C0004FF0000070470CEA13159EEA0C0F18BF7E
:1024D00095EA0C0F06D081EA030E4FF000000EF0D3
:1024E000004170BD00F01CF88900013E00F007B803
:1024F00000F009B84FEA430C5FEA5C5C08D081EA5F
:10250000030100F05BB84FEA410C5FEA5C5CF6D176
:1025100002494FF0000070470000FF070000F87FFD
:102520000EF1020E2EF0030E5EF8046B364205D457
:10253000012A43EB030515F5001F12D8012841EBD2
:10254000010C1CF5001F0CD80ED14FEAD17C0CEB0E
:102550004C0C0CF1020C15F5001F08BF4CEBD37CA2
:1025600004E04FF0080C01E04FEAD37C0CEB4C0583
:1025700026FA05F606F00706B6F1040C06D20EEBB5
:10258000860CBDE870404CF0010C6047DFE80CF0B1
:10259000090B02024FF00041A1F500214FF00000AD
:1025A00070BD19461046012851EB010418BFD4F53F
:1025B000001484BF002001F0004170BD0808A0F5A0
:1025C00000114FEA3101704743004FEAD30C4FEA44
:1025D0003C0C43401FBF40070CF1605113F0FE4F0D
:1025E00070471CF0006F03D10CF0004100207047D1
:1025F0000CF0004343EA507040EACC0010B500F004
:102600000EF800BF000000924FEA0001FFF7D6BFAE
:102610004FF00041A1F500214FF0000070470EF18E
:10262000020E2EF0030E5EF8044B244204D44FEA4F
:102630004102B2F17F4F11D84FEA4003B3F17F4F0F
:102640000CD80ED14FEAD07C0CEB4C0C0CF1020CE8
:10265000B2F17F4F08BF4CEBD17C04E04FF0080C87
:1026600001E04FEAD17C0CEB4C0324FA03F404F0B4
:102670000704B4F1040C06D20EEB840CBDE8104044
:102680004CF0010C6047DFE80CF0070802024FF045
:102690000040A0F5800010BD0846420018BFD2F1EE
:1026A000807288BF00F0004010BDF1EE100A4FF6B6
:1026B000FF71C0F2C03120EA010040F04070E1EE4D
:1026C000100A7047FF2141EAD050C0057047FDF75E
:1026D000FABE000002400000000000A00000000060
:1026E00005400000000000C8000000000C40000091
:1026F0000000409C00000000194000000020BCBE0B
:102700000000000034400000BFC91B8E0000000420
:10271000B5400000504BCFD06607E2CF010000006B
:102720006C4100003E8251AADFEEA7340100000098
:10273000D9420000DCB5A0E23A301F97FFFFFFFF4F
:10274000B4450000FD25A0C8E9A3C14FFFFFFFFF6E
:10275000FF3F00000000008000000000FF3F00007D
:102760000000008000000000A827000800000020F2
:1027700008000000D4010008B0270008080000206D
:1027800080060000F00100081C000000430000006B
:10279000F8FFFFFF0C0000000E0000000F0000001B
:1027A0002E000000000000000024F40000000000E3
:040000050800019955
:00000001FF
