:020000040800F2
:1000000038070020390200084102000843020008B6
:1000100045020008470200084902000800000000ED
:100020000000000000000000000000004B0200087B
:100030004D020008000000004F02000809090008F6
:10004000530200085302000853020008530200083C
:10005000530200085302000853020008530200082C
:10006000530200085302000853020008530200081C
:10007000530200085302000853020008530200080C
:100080005302000853020008530200080000000059
:100090000000000000000000000000005302000803
:1000A00053020008530200085302000853020008DC
:1000B00053020008530200085302000853020008CC
:1000C00053020008530200085302000853020008BC
:1000D0005302000853020008530200080000000009
:1000E000F502000853020008530200080000000057
:1000F00000000000000000000000000053020008A3
:1001000000000000530200085302000853020008D8
:1001100000000000000000000000000000000000DF
:10012000530200085302000853020008530200085B
:100130005302000800000000000000000000000062
:100140000000000000000000000000005302000852
:10015000530200085302000853020008530200082B
:1001600053020008530200080000000000000000D5
:10017000000000000000000000000000000000007F
:100180000000000053020008000000000000000012
:10019000530200085302000800F002F800F03CF897
:1001A0000AA090E8000C82448344AAF10107DA45D2
:1001B00001D100F031F8AFF2090EBAE80F0013F0E8
:1001C000010F18BFFB1A43F001031847E8080000AD
:1001D00008090000103A24BF78C878C1FAD852073D
:1001E00024BF30C830C144BF04680C6070470000B1
:1001F0000023002400250026103A28BF78C1FBD830
:10020000520728BF30C148BF0B6070471FB500F0D0
:1002100043FC1FBD10B510BD00F031F81146FFF7CB
:10022000F5FF00F0F7FB00F04FF803B4FFF7F2FF23
:1002300003BC00F057F80000094880470948004710
:10024000FEE7FEE7FEE7FEE7FEE7FEE7FEE7FEE786
:10025000FEE7FEE704480549054A064B70470000E3
:1002600065090008990100083801002038070020BE
:1002700038030020380300207047704770477546E8
:1002800000F02CF8AE4605006946534620F0070002
:10029000854618B020B5FFF7DDFFBDE820404FF0E0
:1002A00000064FF000074FF000084FF0000BAC467F
:1002B000ACE8C009ACE8C009ACE8C009ACE8C009CA
:1002C00021F007018D46704710B50446AFF300805A
:1002D0002046BDE81040FFF7A8BF00000048704767
:1002E000A000002001491820ABBEFEE72600020056
:1002F0007047000080B50D2000F082FB002808BF89
:1003000080BD40F20810C2F20000016881F00101D6
:10031000016000F0DDFA0D2000F058FB80BD000008
:10032000F0B581B09C4643F64403C4F202031C6856
:1003300000F13E4044F4804400F1FF701C604FEA3D
:10034000B0230424042B38BF4FEAB024C81743F667
:10035000084E01EB9070C4F2010E20F003004FF63E
:1003600000460B1A7044CFF6FF769B000F25875985
:100370009D4027EA05058551855904FA03F32B436F
:10038000022A83510CD0012A19D0FAB943F60C4243
:10039000C4F201020120136888401843106015E080
:1003A0000120DEF8002088400243CEF8002043F60A
:1003B0000C42C4F2010213681843106006E00120E9
:1003C000DEF8002088401043CEF8000001205EF8DF
:1003D000082C884010434EF8080C28200A29B8BF82
:1003E00017200529B8BF881D44B22046614600F099
:1003F000D3FA204600F0C0FA01B0F0BDF0B581B0EC
:100400000546A0F18040A0F5023707F500604FEAED
:10041000B020144607280E464DD8DFE800F004123D
:100420001D313F4C4C4A00F0A3F807F580604FEABD
:10043000B02006283FD8DFE800F0040F23313E3E0D
:100440003C0000F09FF84FEAB720052833D8DFE8DA
:1004500000F003172532323000F09EF841F60040DC
:10046000C4F20200854224D041F20000C4F202002E
:10047000854213D040F60040C4F2020085421AD1F2
:1004800000F094F841F60040C4F20200854210D01A
:1004900041F20000C4F2020085420CD100F090F855
:1004A00041F60040C4F20200854208BF00F092F815
:1004B00001E000F08FF828463146224600F002F8AD
:1004C00001B0F0BD80B549004FF0030CD0F800E05A
:1004D0000CFA01F32EEA03030360036802FA01F148
:1004E0001943016080BD000080B549004FF0030C46
:1004F000D0F808E00CFA01F32EEA03038360836866
:1005000002FA01F11943816080BD000080B54FF00F
:10051000010CD0F804E00CFA01F32EEA0303436067
:10052000436802FA01F11943416080BD80B549007A
:100530004FF0030CD0F80CE00CFA01F32EEA0303A1
:10054000C360C36802FA01F11943C16080BD0000B5
:1005500080B54FF0010CD0F814E00CFA01F32EEA4C
:1005600003034361436902FA01F11943416180BD0C
:1005700043F63000C4F20200016841F0010101605D
:100580007047000043F63000C4F20200016841F0F9
:10059000020101607047000043F63000C4F202001F
:1005A000016841F0040101607047000043F630002B
:1005B000C4F20200016841F00801016070470000C8
:1005C00043F63000C4F20200016841F010010160FE
:1005D0007047000043F63000C4F20200016841F0A9
:1005E000800101607047000043F60800C4F2020079
:1005F000D0F8F81321F00701C0F8F813D0F8F81379
:1006000041F00201C0F8F81350F8081C41F0010154
:1006100040F8081C50F8081C8907FBD550F8081C46
:10062000542221F0807140F8081C50F8041C21F479
:10063000800140F8041C50F8041C40F8041C50F8D9
:10064000041C62F38E1140F8041C50F8041C0822AC
:1006500062F3050140F8041C50F8041C21F44031F9
:1006600040F8041C50F8081C41F0807140F8081C48
:1006700050F8081C8901FBD4016821F003010160D6
:10068000016841F002010160016801F00C010829D4
:10069000FAD1016821F0F0010160016821F4E05114
:1006A0000160016841F480510160016821F46041FA
:1006B000016040F200004BF60051C2F20000C0F2AF
:1006C00001510160704700002DE9F04F81B00746ED
:1006D000DDE90C9ADDE90AB840F21010C2F2000020
:1006E0001446076041608260C360C0F810B0C0F873
:1006F00014A0C0F81890C0F81CA0384601221E466D
:100700000D46FFF77BFE204631460122FFF776FEBD
:10071000584641460122FFF771FE484651460122E4
:10072000FFF76CFE384629460022FFF7FFFE3846E9
:1007300029460022FFF7EAFE384629460222FFF743
:10074000D3FE204631460022FFF7F0FE2046314618
:100750000022FFF7DBFE204631460222FFF7C4FEEF
:10076000584641460022FFF7E1FE58464146002226
:10077000FFF7CCFE584641460222FFF7B5FE484639
:1007800051460022FFF7D2FE484651460022FFF7AD
:10079000BDFE484651460222FFF7A6FE01B0BDE865
:1007A000F08F0000B0B540F21014C2F2000459B14D
:1007B000012918BFB0BD2368616840F2040500EB51
:1007C0004000C2F2000507E02368616840F234058A
:1007D00000EB4000C2F2000515F8202005EB800573
:1007E000C2F3C0021846FFF7B3FEA068E1682A789A
:1007F000C2F38002FFF7ACFE206961692A78C2F378
:100800004002FFF7A5FEA069E1692A7802F0010223
:10081000FFF79EFEB0BD000040F29801C2F2000159
:10082000096848434EF66021B1FBF0F040F29401B4
:10083000C2F20001086070472DE9F04114460D46F0
:10084000064600F089F840F20011C2F2000140F2C1
:1008500094070A68C2F200073B68821A9A4235D3AD
:1008600040F21018C2F200080860C8F82060D8F8FA
:100870002000002808BFBDE8F08140F20410C2F259
:1008800000004CB1012C15D1016840F2040201EBCB
:100890004101C2F2000206E0016840F2340201EBBD
:1008A0004101C2F2000202EB810101EB850104313A
:1008B0000968016000682146FFF774FF386800F09E
:1008C00091F8D8F820000138C8F82000BDE8F08180
:1008D00010B540F21014C2F200040020206220681B
:1008E0006168226AFFF734FEA068E168226AFFF7B8
:1008F0002FFE20696169226AFFF72AFEA069E1697B
:10090000226AFFF725FE10BD80B500F001F880BD1A
:1009100040F20C10C2F20000016801310160704722
:1009200080B54EF21000CEF2000000210160026896
:1009300042F00402026044F61F02C0F2010242606B
:100940008160016841F002010160016841F001012C
:10095000016000F033F880BD4EF21800CEF20000C6
:10096000006870474EF68850CEF20000016841F4EE
:100970007001016070470000002848BF704700F018
:100980001F01012202FA01F14EF200124009CEF2DB
:10099000000242F8201070474EF6145300F00F0288
:1009A000CEF2000309011A4400F16043B0F1FF3FA9
:1009B000C8BF03F564421170704700004EF6235023
:1009C000CEF20000002101707047000043F614428F
:1009D000C4F201020121136801FA00F0184310600B
:1009E0007047000040F20C11C2F200010A6800BF1B
:1009F0000B689B1A8342FBD30020086070470000FD
:100A000043F61441C4F20101096821FA00F000F034
:100A10000100704700F018F84FF400600021012237
:100A2000FFF70AFF40F20814C2F2000406E000BF1C
:100A30004FF4006000210122FFF7FEFE206801282C
:100A4000F6D1FFF745FFF9E7B0B584B0FFF7CCFD6D
:100A5000FFF766FF40F20044C4F2020404F580652B
:100A600028460D210022FFF7C9FC28460D2100224F
:100A70000023FFF755FC05200325CDE90040204663
:100A80000A212246042302940395FFF71DFE01204C
:100A9000FFF7C2FE04B0B0BDF1EE100A4FF6FF71D1
:100AA000C0F2C03120EA010040F04070E1EE100ACF
:100AB00070470000D80A000800000020A0000000D5
:100AC000D4010008780B0008A00000209806000060
:100AD000F0010008000000000024F4000A000000FB
:100AE00001000000030000000600000002000000FA
:100AF00000000000050000000300000001000000ED
:100B000009000000000000000200000008000000D2
:100B100001000000070000000A00000002000000C1
:100B200000000000020000000300000001000000BF
:100B300004000000040000000200000006000000A5
:100B40000500000003000000040000000600000093
:100B50000400000005000000070000000500000080
:100B6000010000000000000006000000640000001A
:080B7000000800000000000075
:040000050800019955
:00000001FF
