:020000040800F2
:10000000700600203902000841020008430200087F
:1000100045020008470200084902000800000000ED
:100020000000000000000000000000004B0200087B
:100030004D020008000000004F020008A105000862
:10004000530200085302000853020008530200083C
:10005000530200085302000853020008530200082C
:10006000530200085302000853020008530200081C
:10007000530200085302000853020008530200080C
:100080005302000853020008530200080000000059
:100090000000000000000000000000005302000803
:1000A00053020008530200085302000853020008DC
:1000B00053020008530200085302000853020008CC
:1000C00053020008530200085302000853020008BC
:1000D0005302000853020008530200080000000009
:1000E00053020008530200085302000800000000F9
:1000F00000000000000000000000000053020008A3
:1001000000000000530200085302000853020008D8
:1001100000000000000000000000000000000000DF
:10012000530200085302000853020008530200085B
:100130005302000800000000000000000000000062
:100140000000000000000000000000005302000852
:10015000530200085302000853020008530200082B
:1001600053020008530200080000000000000000D5
:10017000000000000000000000000000000000007F
:100180000000000053020008000000000000000012
:10019000530200085302000800F002F800F03CF897
:1001A0000AA090E8000C82448344AAF10107DA45D2
:1001B00001D100F031F8AFF2090EBAE80F0013F0E8
:1001C000010F18BFFB1A43F0010318473405000064
:1001D00054050000103A24BF78C878C1FAD85207F5
:1001E00024BF30C830C144BF04680C6070470000B1
:1001F0000023002400250026103A28BF78C1FBD830
:10020000520728BF30C148BF0B6070471FB500F0D0
:100210006AFA1FBD10B510BD00F031F81146FFF7A6
:10022000F5FF00F005FA00F04FF803B4FFF7F2FF16
:1002300003BC00F057F80000094880470948004710
:10024000FEE7FEE7FEE7FEE7FEE7FEE7FEE7FEE786
:10025000FEE7FEE704480549054A064B70470000E3
:10026000F1050008990100087000002070060020C8
:10027000700200207002002070477047704775467A
:1002800000F02CF8AE4605006946534620F0070002
:10029000854618B020B5FFF7DDFFBDE820404FF0E0
:1002A00000064FF000074FF000084FF0000BAC467F
:1002B000ACE8C009ACE8C009ACE8C009ACE8C009CA
:1002C00021F007018D46704710B50446AFF300805A
:1002D0002046BDE81040FFF7A8BF00000048704767
:1002E0000800002001491820ABBEFEE726000200EE
:1002F00070470000F0B581B00546A0F18040A0F540
:10030000023707F500604FEAB020144607280E4672
:100310004DD8DFE800F004121D313F4C4C4A00F08C
:1003200093F807F580604FEAB02006283FD8DFE851
:1003300000F0040F23313E3E3C0000F08FF84FEAFE
:10034000B720052833D8DFE800F003172532323014
:1003500000F08EF841F60040C4F20200854224D03D
:1003600041F20000C4F20200854213D040F6004082
:10037000C4F2020085421AD100F084F841F6004030
:10038000C4F20200854210D041F20000C4F2020023
:1003900085420CD100F080F841F60040C4F2020022
:1003A000854208BF00F082F801E000F07FF828469F
:1003B0003146224600F002F801B0F0BD80B5490098
:1003C0004FF0030CD0F800E00CFA01F32EEA03031F
:1003D0000360036802FA01F11943016080BD000067
:1003E00080B549004FF0030CD0F808E00CFA01F397
:1003F0002EEA03038360836802FA01F119438160E6
:1004000080BD000080B54FF0010CD0F804E00CFA7C
:1004100001F32EEA03034360436802FA01F1194332
:10042000416080BD80B549004FF0030CD0F80CE06E
:100430000CFA01F32EEA0303C360C36802FA01F168
:100440001943C16080BD000043F63000C4F20200D1
:10045000016841F0010101607047000043F630007F
:10046000C4F20200016841F002010160704700001F
:1004700043F63000C4F20200016841F0040101605B
:100480007047000043F63000C4F20200016841F0FA
:10049000080101607047000043F63000C4F202001A
:1004A000016841F0100101607047000043F6300020
:1004B000C4F20200016841F0800101607047000051
:1004C00043F60800C4F20200D0F8F81321F0070147
:1004D000C0F8F813D0F8F81341F00201C0F8F8138F
:1004E00050F8081C41F0010140F8081C50F8081CA5
:1004F0008907FBD550F8081C542221F0807140F880
:10050000081C50F8041C21F4800140F8041C50F829
:10051000041C40F8041C50F8041C62F38E1140F8CF
:10052000041C50F8041C082262F3050140F8041C66
:1005300050F8041C21F4403140F8041C50F8081C09
:1005400041F0807140F8081C50F8081C8901FBD468
:10055000016821F003010160016841F002010160BE
:10056000016801F00C010829FAD1016821F0F001BD
:100570000160016821F4E0510160016841F480519B
:100580000160016821F46041016040F200004BF617
:100590000051C2F20000C0F201510160704700003A
:1005A00080B500F001F880BD40F26800C2F20000A2
:1005B000016801310160704780B54EF21000CEF243
:1005C000000000210160026842F00402026044F66B
:1005D0001F02C0F2010242608160016841F0020125
:1005E0000160016841F00101016000F00BF880BD7D
:1005F0004EF68850CEF20000016841F470010160AF
:10060000704700004EF62350CEF20000002101702A
:100610007047000040F26801C2F200010A6800BFA2
:100620000B689B1A8342FBD30020086070470000D0
:100630001825C4F20005FFF743FFFFF7BDFF0024B4
:10064000C4F20204204605210222FFF753FE204691
:1006500005210322FFF7C4FE204605210022FFF7F3
:10066000E1FE204605210022FFF7CCFE4FF480106A
:10067000206243F64000C4F20200016841F001012B
:1006800001604FF08040016821F01001016040F2EC
:100690004731296163216961296821F0700129606E
:1006A000296841F060012960296841F0080129604A
:1006B0003121E961A96821F00201A960A96841F02E
:1006C0000101A960016841F00101016003240026D5
:1006D0007008E8614FF47A70FFF79CFF013C06F167
:1006E0006306F5D1F2E7F1EE100A4FF6FF71C0F2A2
:1006F000C03120EA010040F04070E1EE100A70477E
:10070000200700080000002008000000D4010008B5
:10071000280700080800002068060000F001000813
:080720000024F40000000000B9
:040000050800019955
:00000001FF
