:020000040800F2
:10000000900600203902000841020008430200085F
:1000100045020008470200084902000800000000ED
:100020000000000000000000000000004B0200087B
:100030004D020008000000004F02000851020008B5
:10004000530200085302000853020008530200083C
:10005000530200085302000853020008530200082C
:10006000530200085302000853020008530200081C
:10007000530200085302000853020008530200080C
:100080005302000853020008530200080000000059
:100090000000000000000000000000005302000803
:1000A00053020008530200085302000853020008DC
:1000B00053020008530200085302000853020008CC
:1000C00053020008530200085302000853020008BC
:1000D0005302000853020008530200080000000009
:1000E00053020008530200085302000800000000F9
:1000F00000000000000000000000000053020008A3
:1001000000000000530200085302000853020008D8
:1001100000000000000000000000000000000000DF
:10012000530200085302000853020008530200085B
:100130005302000800000000000000000000000062
:100140000000000000000000000000005302000852
:10015000530200085302000853020008530200082B
:1001600053020008530200080000000000000000D5
:10017000000000000000000000000000000000007F
:100180000000000053020008000000000000000012
:10019000530200085302000800F002F800F03CF897
:1001A0000AA090E8000C82448344AAF10107DA45D2
:1001B00001D100F031F8AFF2090EBAE80F0013F0E8
:1001C000010F18BFFB1A43F001031847E0040000B9
:1001D00000050000103A24BF78C878C1FAD8520749
:1001E00024BF30C830C144BF04680C6070470000B1
:1001F0000023002400250026103A28BF78C1FBD830
:10020000520728BF30C148BF0B6070471FB500F0D0
:1002100020FA1FBD10B510BD00F031F81146FFF7F0
:10022000F5FF00F08FF900F04FF803B4FFF7F2FF8D
:1002300003BC00F057F80000094880470948004710
:10024000FEE7FEE7FEE7FEE7FEE7FEE7FEE7FEE786
:10025000FEE7FEE704480549054A064B70470000E3
:100260003105000899010008900000209006002048
:10027000900200209002002070477047704775463A
:1002800000F02CF8AE4605006946534620F0070002
:10029000854618B020B5FFF7DDFFBDE820404FF0E0
:1002A00000064FF000074FF000084FF0000BAC467F
:1002B000ACE8C009ACE8C009ACE8C009ACE8C009CA
:1002C00021F007018D46704710B50446AFF300805A
:1002D0002046BDE81040FFF7A8BF00000048704767
:1002E0003000002001491820ABBEFEE726000200C6
:1002F00070470000F0B581B00546A0F18040A0F540
:10030000023707F500604FEAB020144607280E4672
:100310004DD8DFE800F004121D313F4C4C4A00F08C
:10032000A9F807F580604FEAB02006283FD8DFE83B
:1003300000F0040F23313E3E3C0000F0A5F84FEAE8
:10034000B720052833D8DFE800F003172532323014
:1003500000F0A4F841F60040C4F20200854224D027
:1003600041F20000C4F20200854213D040F6004082
:10037000C4F2020085421AD100F09AF841F600401A
:10038000C4F20200854210D041F20000C4F2020023
:1003900085420CD100F096F841F60040C4F202000C
:1003A000854208BF00F098F801E000F095F8284673
:1003B0003146224600F002F801B0F0BD80B5490098
:1003C0004FF0030CD0F800E00CFA01F32EEA03031F
:1003D0000360036802FA01F11943016080BD000067
:1003E00080B549004FF0030CD0F808E00CFA01F397
:1003F0002EEA03038360836802FA01F119438160E6
:1004000080BD000080B54FF0010CD0F804E00CFA7C
:1004100001F32EEA03034360436802FA01F1194332
:10042000416080BD80B549004FF0030CD0F80CE06E
:100430000CFA01F32EEA0303C360C36802FA01F168
:100440001943C16080BD00000069C84000F0010090
:100450007047000080B54FF0010CD0F814E00CFAA2
:1004600001F32EEA03034361436902FA01F11943E0
:10047000416180BD43F63000C4F20200016841F0E2
:10048000010101607047000043F63000C4F2020031
:10049000016841F0020101607047000043F630003E
:1004A000C4F20200016841F00401016070470000DD
:1004B00043F63000C4F20200016841F00801016017
:1004C0007047000043F63000C4F20200016841F0BA
:1004D000100101607047000043F63000C4F20200D2
:1004E000016841F0800101607047000043F6080098
:1004F000C4F2020050F8081C41F0010140F8081C49
:1005000050F8081C8907FBD5016821F00301016040
:1005100001680160016811F00C0FFBD140F200008E
:1005200042F20041C2F20000C0F2F40101607047E3
:100530004EF68850CEF20000016841F4700101606F
:100540007047000082B04AF22015C0F2070500F0A3
:1005500023F840F600044CF6CD480026C4F202040D
:10056000CCF6CC48002700BF20460D21FFF76CFFDA
:1005700048B90137A7FB0801C80800EB8000A7EBCA
:10058000400000F01DF801960198A842ECDA0198AD
:1005900001300190F8E7000010B5FFF7A7FF00F069
:1005A0002DF840F60004C4F2020420460D2100227A
:1005B000FFF7A0FE20460D210122FFF733FF10BDFB
:1005C000F0B581B040F28C6640F204070446002585
:1005D000C0F60006C2F2000757F8242006EBC5015A
:1005E00056F835008988EA4002F00102FFF732FF31
:1005F0000135042DF0D101B0F0BD0000F0B581B09F
:1006000040F26C670026C0F6000700BF07EBC6008B
:1006100057F836408588204629460122FFF76AFEB2
:10062000204629460022FFF7FDFE204629460022EB
:10063000FFF7E8FE204629460122FFF7D1FE2046BB
:1006400029460022FFF706FF0136042EDED101B055
:10065000F0BDF1EE100A4FF6FF71C0F2C03120EA92
:10066000010040F04070E1EE100A704700000240C7
:1006700007000000000402400600000000080240DD
:1006800007000000000002400900000000000240D6
:1006900007000000000402400600000000080240BD
:1006A000070000000000024009000000D00600081A
:1006B0000000002030000000D401000800070008FE
:1006C0003000002060060000F0010008000000007B
:1006D0000024F400000000000100000002000000FF
:1006E00003000000040000000500000006000000F8
:1006F00007000000080000000900000000000000E2
:040000050800019955
:00000001FF
